{
  "contractName": "Dogocontract",
  "abi": [
    {
      "anonymous": false,
      "inputs": [
        {
          "indexed": true,
          "internalType": "address",
          "name": "owner",
          "type": "address"
        },
        {
          "indexed": true,
          "internalType": "address",
          "name": "approved",
          "type": "address"
        },
        {
          "indexed": true,
          "internalType": "uint256",
          "name": "tokenId",
          "type": "uint256"
        }
      ],
      "name": "Approval",
      "type": "event"
    },
    {
      "anonymous": false,
      "inputs": [
        {
          "indexed": false,
          "internalType": "address",
          "name": "owner",
          "type": "address"
        },
        {
          "indexed": false,
          "internalType": "uint256",
          "name": "dogoID",
          "type": "uint256"
        },
        {
          "indexed": false,
          "internalType": "uint256",
          "name": "momID",
          "type": "uint256"
        },
        {
          "indexed": false,
          "internalType": "uint256",
          "name": "dadID",
          "type": "uint256"
        },
        {
          "indexed": false,
          "internalType": "uint256",
          "name": "genes",
          "type": "uint256"
        }
      ],
      "name": "Birth",
      "type": "event"
    },
    {
      "anonymous": false,
      "inputs": [
        {
          "indexed": true,
          "internalType": "address",
          "name": "from",
          "type": "address"
        },
        {
          "indexed": true,
          "internalType": "address",
          "name": "to",
          "type": "address"
        },
        {
          "indexed": true,
          "internalType": "uint256",
          "name": "tokenId",
          "type": "uint256"
        }
      ],
      "name": "Transfer",
      "type": "event"
    },
    {
      "constant": true,
      "inputs": [],
      "name": "GEN0_LIMIT",
      "outputs": [
        {
          "internalType": "uint256",
          "name": "",
          "type": "uint256"
        }
      ],
      "payable": false,
      "stateMutability": "view",
      "type": "function"
    },
    {
      "constant": true,
      "inputs": [
        {
          "internalType": "uint256",
          "name": "",
          "type": "uint256"
        }
      ],
      "name": "dogoIndexToOwner",
      "outputs": [
        {
          "internalType": "address",
          "name": "",
          "type": "address"
        }
      ],
      "payable": false,
      "stateMutability": "view",
      "type": "function"
    },
    {
      "constant": true,
      "inputs": [],
      "name": "gen0Counter",
      "outputs": [
        {
          "internalType": "uint256",
          "name": "",
          "type": "uint256"
        }
      ],
      "payable": false,
      "stateMutability": "view",
      "type": "function"
    },
    {
      "constant": true,
      "inputs": [],
      "name": "name",
      "outputs": [
        {
          "internalType": "string",
          "name": "",
          "type": "string"
        }
      ],
      "payable": false,
      "stateMutability": "view",
      "type": "function"
    },
    {
      "constant": true,
      "inputs": [],
      "name": "owner",
      "outputs": [
        {
          "internalType": "address",
          "name": "",
          "type": "address"
        }
      ],
      "payable": false,
      "stateMutability": "view",
      "type": "function"
    },
    {
      "constant": true,
      "inputs": [],
      "name": "symbol",
      "outputs": [
        {
          "internalType": "string",
          "name": "",
          "type": "string"
        }
      ],
      "payable": false,
      "stateMutability": "view",
      "type": "function"
    },
    {
      "constant": true,
      "inputs": [
        {
          "internalType": "address",
          "name": "_owner",
          "type": "address"
        }
      ],
      "name": "balanceOf",
      "outputs": [
        {
          "internalType": "uint256",
          "name": "_balance",
          "type": "uint256"
        }
      ],
      "payable": false,
      "stateMutability": "view",
      "type": "function"
    },
    {
      "constant": true,
      "inputs": [
        {
          "internalType": "uint256",
          "name": "_tokenID",
          "type": "uint256"
        }
      ],
      "name": "ownerOf",
      "outputs": [
        {
          "internalType": "address",
          "name": "owner",
          "type": "address"
        }
      ],
      "payable": false,
      "stateMutability": "view",
      "type": "function"
    },
    {
      "constant": true,
      "inputs": [],
      "name": "totalSupply",
      "outputs": [
        {
          "internalType": "uint256",
          "name": "total",
          "type": "uint256"
        }
      ],
      "payable": false,
      "stateMutability": "view",
      "type": "function"
    },
    {
      "constant": false,
      "inputs": [
        {
          "internalType": "uint256",
          "name": "_genes",
          "type": "uint256"
        }
      ],
      "name": "createDogoGen0",
      "outputs": [],
      "payable": false,
      "stateMutability": "nonpayable",
      "type": "function"
    },
    {
      "constant": false,
      "inputs": [
        {
          "internalType": "address",
          "name": "_to",
          "type": "address"
        },
        {
          "internalType": "uint256",
          "name": "_tokenID",
          "type": "uint256"
        }
      ],
      "name": "transfer",
      "outputs": [],
      "payable": false,
      "stateMutability": "nonpayable",
      "type": "function"
    }
  ],
  "bytecode": "0x6080604052600a600155336000806101000a81548173ffffffffffffffffffffffffffffffffffffffff021916908373ffffffffffffffffffffffffffffffffffffffff160217905550610ec5806100586000396000f3fe608060405234801561001057600080fd5b50600436106100a95760003560e01c806371eca99d1161007157806371eca99d146102835780638da5cb5b146102a157806395d89b41146102eb578063a9059cbb1461036e578063bfa645ea146103bc578063ef5e94aa146103ea576100a9565b806306fdde03146100ae57806318160ddd146101315780634fc75b651461014f5780636352211e146101bd57806370a082311461022b575b600080fd5b6100b6610408565b6040518080602001828103825283818151815260200191508051906020019080838360005b838110156100f65780820151818401526020810190506100db565b50505050905090810190601f1680156101235780820380516001836020036101000a031916815260200191505b509250505060405180910390f35b610139610441565b6040518082815260200191505060405180910390f35b61017b6004803603602081101561016557600080fd5b810190808035906020019092919050505061044e565b604051808273ffffffffffffffffffffffffffffffffffffffff1673ffffffffffffffffffffffffffffffffffffffff16815260200191505060405180910390f35b6101e9600480360360208110156101d357600080fd5b8101908080359060200190929190505050610481565b604051808273ffffffffffffffffffffffffffffffffffffffff1673ffffffffffffffffffffffffffffffffffffffff16815260200191505060405180910390f35b61026d6004803603602081101561024157600080fd5b81019080803573ffffffffffffffffffffffffffffffffffffffff1690602001909291905050506104be565b6040518082815260200191505060405180910390f35b61028b610507565b6040518082815260200191505060405180910390f35b6102a961050d565b604051808273ffffffffffffffffffffffffffffffffffffffff1673ffffffffffffffffffffffffffffffffffffffff16815260200191505060405180910390f35b6102f3610532565b6040518080602001828103825283818151815260200191508051906020019080838360005b83811015610333578082015181840152602081019050610318565b50505050905090810190601f1680156103605780820380516001836020036101000a031916815260200191505b509250505060405180910390f35b6103ba6004803603604081101561038457600080fd5b81019080803573ffffffffffffffffffffffffffffffffffffffff1690602001909291908035906020019092919050505061056b565b005b6103e8600480360360208110156103d257600080fd5b8101908080359060200190929190505050610810565b005b6103f261089e565b6040518082815260200191505060405180910390f35b6040518060400160405280600b81526020017f43727970746f446f676f7300000000000000000000000000000000000000000081525081565b6000600280549050905090565b60036020528060005260406000206000915054906101000a900473ffffffffffffffffffffffffffffffffffffffff1681565b60006003600083815260200190815260200160002060009054906101000a900473ffffffffffffffffffffffffffffffffffffffff169050919050565b6000600460008373ffffffffffffffffffffffffffffffffffffffff1673ffffffffffffffffffffffffffffffffffffffff168152602001908152602001600020549050919050565b60015481565b6000809054906101000a900473ffffffffffffffffffffffffffffffffffffffff1681565b6040518060400160405280600381526020017f43444f000000000000000000000000000000000000000000000000000000000081525081565b600061057682610481565b90508073ffffffffffffffffffffffffffffffffffffffff163373ffffffffffffffffffffffffffffffffffffffff16146105b057600080fd5b600073ffffffffffffffffffffffffffffffffffffffff163373ffffffffffffffffffffffffffffffffffffffff1614156105ea57600080fd5b6000809054906101000a900473ffffffffffffffffffffffffffffffffffffffff1673ffffffffffffffffffffffffffffffffffffffff163373ffffffffffffffffffffffffffffffffffffffff16141561064457600080fd5b826003600084815260200190815260200160002060006101000a81548173ffffffffffffffffffffffffffffffffffffffff021916908373ffffffffffffffffffffffffffffffffffffffff1602179055506106e0600460008573ffffffffffffffffffffffffffffffffffffffff1673ffffffffffffffffffffffffffffffffffffffff1681526020019081526020016000205460016108a4565b600460008573ffffffffffffffffffffffffffffffffffffffff1673ffffffffffffffffffffffffffffffffffffffff1681526020019081526020016000208190555061076d600460003373ffffffffffffffffffffffffffffffffffffffff1673ffffffffffffffffffffffffffffffffffffffff16815260200190815260200160002054600161092c565b600460003373ffffffffffffffffffffffffffffffffffffffff1673ffffffffffffffffffffffffffffffffffffffff16815260200190815260200160002081905550818373ffffffffffffffffffffffffffffffffffffffff163373ffffffffffffffffffffffffffffffffffffffff167fddf252ad1be2c89b69c2b068fc378daa952ba7f163c4a11628f55a4df523b3ef60405160405180910390a4505050565b6000809054906101000a900473ffffffffffffffffffffffffffffffffffffffff1673ffffffffffffffffffffffffffffffffffffffff163373ffffffffffffffffffffffffffffffffffffffff161461086957600080fd5b6001546005541061087957600080fd5b60056000815480929190600101919050555061089a60008060018430610976565b5050565b60055481565b600080828401905083811015610922576040517f08c379a000000000000000000000000000000000000000000000000000000000815260040180806020018281038252601b8152602001807f536166654d6174683a206164646974696f6e206f766572666c6f77000000000081525060200191505060405180910390fd5b8091505092915050565b600061096e83836040518060400160405280601e81526020017f536166654d6174683a207375627472616374696f6e206f766572666c6f770000815250610b3e565b905092915050565b6000610980610e47565b6040518060a001604052808581526020014267ffffffffffffffff1681526020018863ffffffff1681526020018763ffffffff1681526020018661ffff16815250905060006001600283908060018154018082558091505090600182039060005260206000209060020201600090919290919091506000820151816000015560208201518160010160006101000a81548167ffffffffffffffff021916908367ffffffffffffffff16021790555060408201518160010160086101000a81548163ffffffff021916908363ffffffff160217905550606082015181600101600c6101000a81548163ffffffff021916908363ffffffff16021790555060808201518160010160106101000a81548161ffff021916908361ffff1602179055505050039050610aaf600082610bfe565b7f0a5311bd2a6608f08a180df2ee7c5946819a649b204b554bb8e39825b2c50ad56000828a8a89604051808673ffffffffffffffffffffffffffffffffffffffff1673ffffffffffffffffffffffffffffffffffffffff1681526020018581526020018481526020018381526020018281526020019550505050505060405180910390a1505095945050505050565b6000838311158290610beb576040517f08c379a00000000000000000000000000000000000000000000000000000000081526004018080602001828103825283818151815260200191508051906020019080838360005b83811015610bb0578082015181840152602081019050610b95565b50505050905090810190601f168015610bdd5780820380516001836020036101000a031916815260200191505b509250505060405180910390fd5b5060008385039050809150509392505050565b6000610c0982610481565b90508073ffffffffffffffffffffffffffffffffffffffff163373ffffffffffffffffffffffffffffffffffffffff1614610c4357600080fd5b600073ffffffffffffffffffffffffffffffffffffffff163373ffffffffffffffffffffffffffffffffffffffff1614610c7c57600080fd5b6000809054906101000a900473ffffffffffffffffffffffffffffffffffffffff1673ffffffffffffffffffffffffffffffffffffffff163373ffffffffffffffffffffffffffffffffffffffff161415610cd657600080fd5b826003600084815260200190815260200160002060006101000a81548173ffffffffffffffffffffffffffffffffffffffff021916908373ffffffffffffffffffffffffffffffffffffffff160217905550610d72600460008573ffffffffffffffffffffffffffffffffffffffff1673ffffffffffffffffffffffffffffffffffffffff1681526020019081526020016000205460016108a4565b600460008573ffffffffffffffffffffffffffffffffffffffff1673ffffffffffffffffffffffffffffffffffffffff16815260200190815260200160002081905550610dff600460003373ffffffffffffffffffffffffffffffffffffffff1673ffffffffffffffffffffffffffffffffffffffff16815260200190815260200160002054600161092c565b600460003373ffffffffffffffffffffffffffffffffffffffff1673ffffffffffffffffffffffffffffffffffffffff16815260200190815260200160002081905550505050565b6040518060a0016040528060008152602001600067ffffffffffffffff168152602001600063ffffffff168152602001600063ffffffff168152602001600061ffff168152509056fea265627a7a72315820c48a9227f363029a4398f213860ee6c50864fefd9dc4e1af460c605782f9616864736f6c634300050c0032",
  "source": "// SPDX-License-Identifier: MIT\r\npragma solidity ^0.5.12;\r\n\r\nimport \"./IERC721.sol\";\r\nimport \"./Safemath.sol\";\r\n\r\ncontract Ownable{\r\n    address public owner;\r\n\r\n\r\n\r\n    modifier onlyOwner(){\r\n        require(msg.sender == owner);\r\n        _; //Continue execution\r\n    }\r\n\r\n    constructor() public{\r\n        owner = msg.sender;\r\n    }\r\n}\r\n\r\ncontract Dogocontract is IERC721 , Ownable {\r\n    string public constant name = \"CryptoDogos\";\r\n    string public constant symbol = \"CDO\";\r\n    uint256 public GEN0_LIMIT = 10;\r\n\r\n    struct Dogo {\r\n        uint256 genes;\r\n        uint64 birthTime;\r\n        uint32 momID;\r\n        uint32 dadID;\r\n        uint16 generation;\r\n    }\r\n        \r\n    Dogo[] Dogos; //array of dogos\r\n    mapping (uint256 => address) public dogoIndexToOwner; // map dog id to owner address\r\n    mapping(address => uint256) ownershipTokenCount; // count of dogos belonging to an address\r\n\r\n    uint256 public gen0Counter;\r\n\r\n    event Transfer(address indexed from, address indexed to, uint256 indexed tokenId); //when `tokenId` token is transfered from `from` to `to`.\r\n    event Approval(address indexed owner, address indexed approved, uint256 indexed tokenId); // when `owner` enables `approved` to manage the `tokenId` token.\r\n    event Birth(address owner, uint256 dogoID, uint256 momID, uint256 dadID, uint256 genes); // when new dogo is born\r\n\r\n    function balanceOf(address _owner) external view returns (uint256 _balance) {\r\n        return ownershipTokenCount[_owner];\r\n    } \r\n\r\n    function ownerOf(uint256 _tokenID) public view returns (address owner){\r\n        return dogoIndexToOwner[_tokenID]; // provide the holder address from the dogo array index\r\n\r\n    }\r\n\r\n    function totalSupply() external view returns (uint256 total){\r\n        return Dogos.length; // length (total count) of the dogo array\r\n    }\r\n/* getter functions created by default to state variables\r\n    function name() external view returns (string memory tokenName){ //Returns the name of the token.\r\n        return name;\r\n    }\r\n    \r\n    function symbol() external view returns (string memory tokenSymbol){ //Returns the symbol of the token.\r\n        return symbol;\r\n    }\r\n*/\r\n\r\n    function createDogoGen0(uint _genes) public onlyOwner {\r\n        // passing in genetic code, create the new dogo\r\n        require(gen0Counter < GEN0_LIMIT);\r\n        gen0Counter++;\r\n        _createDogo(0,0,1,_genes,address(this));\r\n    }\r\n\r\n    function _createDogo( uint256 _momID, uint256 _dadID, uint256 _generation, uint256 _genes,address _owner) private returns (uint256){\r\n        // create dogo from struct\r\n        Dogo memory _dogo = Dogo({\r\n            genes:_genes,\r\n            birthTime: uint64(now),\r\n            momID: uint32(_momID), \r\n            dadID: uint32(_dadID),\r\n            generation: uint16( _generation)\r\n        });\r\n        uint256 newDogoID = Dogos.push(_dogo) -1; // start first dog index 0\r\n\r\n        birthTransfer(address(0), newDogoID);\r\n        emit Birth (address(0), newDogoID, _momID, _dadID, _genes); // announce transfer \r\n    }\r\n\r\n    function birthTransfer(address _to, uint256 _tokenID) internal { // transfers the dogo token from msg.sender to new _to address\r\n        address asOwner = ownerOf(_tokenID);\r\n        require(msg.sender == asOwner); // make sure token is owned by msg.sender\r\n        require(msg.sender == address(0)); // must be address 0\r\n        require(msg.sender != owner); //`to` can not be the contract address\r\n        dogoIndexToOwner[_tokenID] = _to;   // set array index of dogos to new owner\r\n        ownershipTokenCount[_to] = SafeMath.add(ownershipTokenCount[_to],1); // add to the total owner count  ownershipTokenCount[new owner]\r\n        ownershipTokenCount[msg.sender] = SafeMath.sub(ownershipTokenCount[msg.sender],1);  // reduce previous owner's dogo count\r\n\r\n\r\n\r\n    }\r\n\r\n    function transfer(address _to, uint256 _tokenID) external { // transfers the dogo token from msg.sender to new _to address\r\n        address asOwner = ownerOf(_tokenID);\r\n        require(msg.sender == asOwner); // make sure token is owned by msg.sender\r\n        require(msg.sender != address(0)); //`to` cannot be the zero address\r\n        require(msg.sender != owner); //`to` can not be the contract address\r\n        dogoIndexToOwner[_tokenID] = _to;   // set array index of dogos to new owner\r\n        ownershipTokenCount[_to] = SafeMath.add(ownershipTokenCount[_to],1); // add to the total owner count  ownershipTokenCount[new owner]\r\n        ownershipTokenCount[msg.sender] = SafeMath.sub(ownershipTokenCount[msg.sender],1);  // reduce previous owner's dogo count\r\n\r\n        emit Transfer (msg.sender, _to, _tokenID); // announce transfer \r\n\r\n    }\r\n}",
  "sourcePath": "I:\\Academy_Ivan\\solidity fun\\academy-cryptodogo\\client\\contracts\\Dogocontract.sol",
  "compiler": {
    "name": "solc",
    "version": "0.5.12+commit.7709ece9.Emscripten.clang"
  },
  "schemaVersion": "3.2.0",
  "updatedAt": "2020-08-16T11:22:52.564Z",
  "devdoc": {
    "methods": {}
  },
  "userdoc": {
    "methods": {}
  }
}