{
  "contractName": "Dogocontract",
  "abi": [
    {
      "anonymous": false,
      "inputs": [
        {
          "indexed": true,
          "internalType": "address",
          "name": "owner",
          "type": "address"
        },
        {
          "indexed": true,
          "internalType": "address",
          "name": "approved",
          "type": "address"
        },
        {
          "indexed": true,
          "internalType": "uint256",
          "name": "tokenId",
          "type": "uint256"
        }
      ],
      "name": "Approval",
      "type": "event"
    },
    {
      "anonymous": false,
      "inputs": [
        {
          "indexed": false,
          "internalType": "address",
          "name": "owner",
          "type": "address"
        },
        {
          "indexed": false,
          "internalType": "uint256",
          "name": "dogoID",
          "type": "uint256"
        },
        {
          "indexed": false,
          "internalType": "uint256",
          "name": "momID",
          "type": "uint256"
        },
        {
          "indexed": false,
          "internalType": "uint256",
          "name": "dadID",
          "type": "uint256"
        },
        {
          "indexed": false,
          "internalType": "uint256",
          "name": "genes",
          "type": "uint256"
        }
      ],
      "name": "Birth",
      "type": "event"
    },
    {
      "anonymous": false,
      "inputs": [
        {
          "indexed": true,
          "internalType": "address",
          "name": "from",
          "type": "address"
        },
        {
          "indexed": true,
          "internalType": "address",
          "name": "to",
          "type": "address"
        },
        {
          "indexed": true,
          "internalType": "uint256",
          "name": "tokenId",
          "type": "uint256"
        }
      ],
      "name": "Transfer",
      "type": "event"
    },
    {
      "constant": true,
      "inputs": [],
      "name": "GEN0_LIMIT",
      "outputs": [
        {
          "internalType": "uint256",
          "name": "",
          "type": "uint256"
        }
      ],
      "payable": false,
      "stateMutability": "view",
      "type": "function"
    },
    {
      "constant": true,
      "inputs": [
        {
          "internalType": "uint256",
          "name": "",
          "type": "uint256"
        }
      ],
      "name": "dogoIndexToOwner",
      "outputs": [
        {
          "internalType": "address",
          "name": "",
          "type": "address"
        }
      ],
      "payable": false,
      "stateMutability": "view",
      "type": "function"
    },
    {
      "constant": true,
      "inputs": [],
      "name": "gen0Counter",
      "outputs": [
        {
          "internalType": "uint256",
          "name": "",
          "type": "uint256"
        }
      ],
      "payable": false,
      "stateMutability": "view",
      "type": "function"
    },
    {
      "constant": true,
      "inputs": [],
      "name": "name",
      "outputs": [
        {
          "internalType": "string",
          "name": "",
          "type": "string"
        }
      ],
      "payable": false,
      "stateMutability": "view",
      "type": "function"
    },
    {
      "constant": true,
      "inputs": [],
      "name": "owner",
      "outputs": [
        {
          "internalType": "address",
          "name": "",
          "type": "address"
        }
      ],
      "payable": false,
      "stateMutability": "view",
      "type": "function"
    },
    {
      "constant": true,
      "inputs": [],
      "name": "symbol",
      "outputs": [
        {
          "internalType": "string",
          "name": "",
          "type": "string"
        }
      ],
      "payable": false,
      "stateMutability": "view",
      "type": "function"
    },
    {
      "constant": true,
      "inputs": [
        {
          "internalType": "address",
          "name": "_owner",
          "type": "address"
        }
      ],
      "name": "balanceOf",
      "outputs": [
        {
          "internalType": "uint256",
          "name": "_balance",
          "type": "uint256"
        }
      ],
      "payable": false,
      "stateMutability": "view",
      "type": "function"
    },
    {
      "constant": true,
      "inputs": [
        {
          "internalType": "uint256",
          "name": "_tokenID",
          "type": "uint256"
        }
      ],
      "name": "ownerOf",
      "outputs": [
        {
          "internalType": "address",
          "name": "owner",
          "type": "address"
        }
      ],
      "payable": false,
      "stateMutability": "view",
      "type": "function"
    },
    {
      "constant": true,
      "inputs": [
        {
          "internalType": "address",
          "name": "_address",
          "type": "address"
        }
      ],
      "name": "allOwned",
      "outputs": [
        {
          "internalType": "uint256[]",
          "name": "",
          "type": "uint256[]"
        }
      ],
      "payable": false,
      "stateMutability": "view",
      "type": "function"
    },
    {
      "constant": true,
      "inputs": [],
      "name": "totalSupply",
      "outputs": [
        {
          "internalType": "uint256",
          "name": "total",
          "type": "uint256"
        }
      ],
      "payable": false,
      "stateMutability": "view",
      "type": "function"
    },
    {
      "constant": true,
      "inputs": [
        {
          "internalType": "uint256",
          "name": "_tokenID",
          "type": "uint256"
        }
      ],
      "name": "getDogo",
      "outputs": [
        {
          "internalType": "uint256",
          "name": "_genes",
          "type": "uint256"
        },
        {
          "internalType": "uint256",
          "name": "birthTime",
          "type": "uint256"
        },
        {
          "internalType": "uint256",
          "name": "_generation",
          "type": "uint256"
        },
        {
          "internalType": "uint256",
          "name": "_momID",
          "type": "uint256"
        },
        {
          "internalType": "uint256",
          "name": "_dadID",
          "type": "uint256"
        },
        {
          "internalType": "address",
          "name": "_owner",
          "type": "address"
        }
      ],
      "payable": false,
      "stateMutability": "view",
      "type": "function"
    },
    {
      "constant": false,
      "inputs": [
        {
          "internalType": "uint256",
          "name": "_genes",
          "type": "uint256"
        }
      ],
      "name": "createGen0Dogo",
      "outputs": [],
      "payable": false,
      "stateMutability": "nonpayable",
      "type": "function"
    },
    {
      "constant": false,
      "inputs": [
        {
          "internalType": "address",
          "name": "_to",
          "type": "address"
        },
        {
          "internalType": "uint256",
          "name": "_tokenID",
          "type": "uint256"
        }
      ],
      "name": "transfer",
      "outputs": [],
      "payable": false,
      "stateMutability": "nonpayable",
      "type": "function"
    }
  ],
  "bytecode": "0x60806040526019600155336000806101000a81548173ffffffffffffffffffffffffffffffffffffffff021916908373ffffffffffffffffffffffffffffffffffffffff160217905550610fe9806100586000396000f3fe608060405234801561001057600080fd5b50600436106100cf5760003560e01c806385e5d72b1161008c57806398868de91161006657806398868de91461042d578063a9059cbb1461045b578063d134fe9f146104a9578063ef5e94aa1461053a576100cf565b806385e5d72b146102c75780638da5cb5b1461036057806395d89b41146103aa576100cf565b806306fdde03146100d457806318160ddd146101575780634fc75b65146101755780636352211e146101e357806370a082311461025157806371eca99d146102a9575b600080fd5b6100dc610558565b6040518080602001828103825283818151815260200191508051906020019080838360005b8381101561011c578082015181840152602081019050610101565b50505050905090810190601f1680156101495780820380516001836020036101000a031916815260200191505b509250505060405180910390f35b61015f610591565b6040518082815260200191505060405180910390f35b6101a16004803603602081101561018b57600080fd5b810190808035906020019092919050505061059e565b604051808273ffffffffffffffffffffffffffffffffffffffff1673ffffffffffffffffffffffffffffffffffffffff16815260200191505060405180910390f35b61020f600480360360208110156101f957600080fd5b81019080803590602001909291905050506105d1565b604051808273ffffffffffffffffffffffffffffffffffffffff1673ffffffffffffffffffffffffffffffffffffffff16815260200191505060405180910390f35b6102936004803603602081101561026757600080fd5b81019080803573ffffffffffffffffffffffffffffffffffffffff16906020019092919050505061060e565b6040518082815260200191505060405180910390f35b6102b1610657565b6040518082815260200191505060405180910390f35b610309600480360360208110156102dd57600080fd5b81019080803573ffffffffffffffffffffffffffffffffffffffff16906020019092919050505061065d565b6040518080602001828103825283818151815260200191508051906020019060200280838360005b8381101561034c578082015181840152602081019050610331565b505050509050019250505060405180910390f35b61036861075f565b604051808273ffffffffffffffffffffffffffffffffffffffff1673ffffffffffffffffffffffffffffffffffffffff16815260200191505060405180910390f35b6103b2610784565b6040518080602001828103825283818151815260200191508051906020019080838360005b838110156103f25780820151818401526020810190506103d7565b50505050905090810190601f16801561041f5780820380516001836020036101000a031916815260200191505b509250505060405180910390f35b6104596004803603602081101561044357600080fd5b81019080803590602001909291905050506107bd565b005b6104a76004803603604081101561047157600080fd5b81019080803573ffffffffffffffffffffffffffffffffffffffff1690602001909291908035906020019092919050505061084b565b005b6104d5600480360360208110156104bf57600080fd5b81019080803590602001909291905050506108df565b604051808781526020018681526020018581526020018481526020018381526020018273ffffffffffffffffffffffffffffffffffffffff1673ffffffffffffffffffffffffffffffffffffffff168152602001965050505050505060405180910390f35b61054261099b565b6040518082815260200191505060405180910390f35b6040518060400160405280600b81526020017f43727970746f446f676f7300000000000000000000000000000000000000000081525081565b6000600280549050905090565b60036020528060005260406000206000915054906101000a900473ffffffffffffffffffffffffffffffffffffffff1681565b60006003600083815260200190815260200160002060009054906101000a900473ffffffffffffffffffffffffffffffffffffffff169050919050565b6000600460008373ffffffffffffffffffffffffffffffffffffffff1673ffffffffffffffffffffffffffffffffffffffff168152602001908152602001600020549050919050565b60015481565b606080600460008473ffffffffffffffffffffffffffffffffffffffff1673ffffffffffffffffffffffffffffffffffffffff168152602001908152602001600020546040519080825280602002602001820160405280156106ce5781602001602082028038833980820191505090505b509050600080905060008090505b600280549050811015610754578473ffffffffffffffffffffffffffffffffffffffff16610709826105d1565b73ffffffffffffffffffffffffffffffffffffffff161415610747578083838151811061073257fe5b60200260200101818152505081806001019250505b80806001019150506106dc565b508192505050919050565b6000809054906101000a900473ffffffffffffffffffffffffffffffffffffffff1681565b6040518060400160405280600381526020017f43444f000000000000000000000000000000000000000000000000000000000081525081565b6000809054906101000a900473ffffffffffffffffffffffffffffffffffffffff1673ffffffffffffffffffffffffffffffffffffffff163373ffffffffffffffffffffffffffffffffffffffff161461081657600080fd5b6001546005541061082657600080fd5b600560008154809291906001019190505550610847600080600184306109a1565b5050565b3073ffffffffffffffffffffffffffffffffffffffff163373ffffffffffffffffffffffffffffffffffffffff161461088357600080fd5b600073ffffffffffffffffffffffffffffffffffffffff163373ffffffffffffffffffffffffffffffffffffffff1614156108bd57600080fd5b6108c73382610b6c565b6108d057600080fd5b6108db338383610bd8565b5050565b6000806000806000806000600288815481106108f757fe5b906000526020600020906002020190508060010160009054906101000a900467ffffffffffffffff1667ffffffffffffffff1695508060010160089054906101000a900463ffffffff1663ffffffff16935080600101600c9054906101000a900463ffffffff1663ffffffff1692508060010160109054906101000a900461ffff1661ffff1694508060000154965061098f886105d1565b91505091939550919395565b60055481565b60006109ab610f6b565b6040518060a001604052808581526020014267ffffffffffffffff1681526020018863ffffffff1681526020018763ffffffff1681526020018661ffff16815250905060006001600283908060018154018082558091505090600182039060005260206000209060020201600090919290919091506000820151816000015560208201518160010160006101000a81548167ffffffffffffffff021916908367ffffffffffffffff16021790555060408201518160010160086101000a81548163ffffffff021916908363ffffffff160217905550606082015181600101600c6101000a81548163ffffffff021916908363ffffffff16021790555060808201518160010160106101000a81548161ffff021916908361ffff1602179055505050039050610adb60008583610bd8565b7f0a5311bd2a6608f08a180df2ee7c5946819a649b204b554bb8e39825b2c50ad584828a8a89604051808673ffffffffffffffffffffffffffffffffffffffff1673ffffffffffffffffffffffffffffffffffffffff1681526020018581526020018481526020018381526020018281526020019550505050505060405180910390a1809250505095945050505050565b60008273ffffffffffffffffffffffffffffffffffffffff166003600084815260200190815260200160002060009054906101000a900473ffffffffffffffffffffffffffffffffffffffff1673ffffffffffffffffffffffffffffffffffffffff1614905092915050565b816003600083815260200190815260200160002060006101000a81548173ffffffffffffffffffffffffffffffffffffffff021916908373ffffffffffffffffffffffffffffffffffffffff160217905550610c74600460008473ffffffffffffffffffffffffffffffffffffffff1673ffffffffffffffffffffffffffffffffffffffff168152602001908152602001600020546001610dd9565b600460008473ffffffffffffffffffffffffffffffffffffffff1673ffffffffffffffffffffffffffffffffffffffff16815260200190815260200160002081905550600073ffffffffffffffffffffffffffffffffffffffff168373ffffffffffffffffffffffffffffffffffffffff1614610d7957610d35600460003373ffffffffffffffffffffffffffffffffffffffff1673ffffffffffffffffffffffffffffffffffffffff168152602001908152602001600020546001610e61565b600460008573ffffffffffffffffffffffffffffffffffffffff1673ffffffffffffffffffffffffffffffffffffffff168152602001908152602001600020819055505b808273ffffffffffffffffffffffffffffffffffffffff168473ffffffffffffffffffffffffffffffffffffffff167fddf252ad1be2c89b69c2b068fc378daa952ba7f163c4a11628f55a4df523b3ef60405160405180910390a4505050565b600080828401905083811015610e57576040517f08c379a000000000000000000000000000000000000000000000000000000000815260040180806020018281038252601b8152602001807f536166654d6174683a206164646974696f6e206f766572666c6f77000000000081525060200191505060405180910390fd5b8091505092915050565b6000610ea383836040518060400160405280601e81526020017f536166654d6174683a207375627472616374696f6e206f766572666c6f770000815250610eab565b905092915050565b6000838311158290610f58576040517f08c379a00000000000000000000000000000000000000000000000000000000081526004018080602001828103825283818151815260200191508051906020019080838360005b83811015610f1d578082015181840152602081019050610f02565b50505050905090810190601f168015610f4a5780820380516001836020036101000a031916815260200191505b509250505060405180910390fd5b5060008385039050809150509392505050565b6040518060a0016040528060008152602001600067ffffffffffffffff168152602001600063ffffffff168152602001600063ffffffff168152602001600061ffff168152509056fea265627a7a72315820ae32ed2c624ce9f37193d8f7dc9e8ab0ddb8d8a9b5ea4a6db1a0be51f8270aaa64736f6c634300050c0032",
  "source": "// SPDX-License-Identifier: MIT\r\npragma solidity ^0.5.12;\r\n\r\nimport \"./IERC721.sol\";\r\nimport \"./Safemath.sol\";\r\n\r\ncontract Ownable{\r\n    address public owner;\r\n\r\n\r\n\r\n    modifier onlyOwner(){\r\n        require(msg.sender == owner);\r\n        _; //Continue execution\r\n    }\r\n\r\n    constructor() public{\r\n        owner = msg.sender;\r\n    }\r\n}\r\n\r\ncontract Dogocontract is IERC721 , Ownable {\r\n    string public constant name = \"CryptoDogos\";\r\n    string public constant symbol = \"CDO\";\r\n    uint256 public GEN0_LIMIT = 25; //... and then there were 25. 25 Brave new Dogos.\r\n\r\n    struct Dogo {\r\n        uint256 genes;\r\n        uint64 birthTime;\r\n        uint32 momID;\r\n        uint32 dadID;\r\n        uint16 generation;\r\n    }\r\n        \r\n    Dogo[] Dogos; //array of dogos\r\n    mapping (uint256 => address) public dogoIndexToOwner; // map dog id to owner address\r\n    mapping(address => uint256) ownershipTokenCount; // count of dogos belonging to an address\r\n\r\n    uint256 public gen0Counter;\r\n\r\n    event Transfer(address indexed from, address indexed to, uint256 indexed tokenId); //when `tokenId` token is transfered from `from` to `to`.\r\n    event Approval(address indexed owner, address indexed approved, uint256 indexed tokenId); // when `owner` enables `approved` to manage the `tokenId` token.\r\n    event Birth(address owner, uint256 dogoID, uint256 momID, uint256 dadID, uint256 genes); // when new dogo is born\r\n\r\n    function balanceOf(address _owner) external view returns (uint256 _balance) {\r\n        return ownershipTokenCount[_owner];\r\n    } \r\n\r\n    function ownerOf(uint256 _tokenID) public view returns (address owner){\r\n        return dogoIndexToOwner[_tokenID]; // provide the holder address from the dogo array index\r\n\r\n    }\r\n\r\n    function allOwned(address _address) public view returns ( uint [] memory){\r\n        uint[] memory ownedArray = new uint[](ownershipTokenCount[_address]); //create array to hold array of IDs owned by msg.sender set max to ownedCount\r\n        uint ownedIndex = 0; // index for owned array\r\n        for (uint i = 0; i < Dogos.length; i++){\r\n            if (ownerOf(i) == _address) {\r\n                ownedArray[ownedIndex] = i;\r\n                ownedIndex++;\r\n            }\r\n        }\r\n        return ownedArray;\r\n\r\n    }\r\n\r\n\r\n    function _owns(address _claims, uint256 _tokenID) internal view returns (bool) {\r\n        return dogoIndexToOwner[_tokenID] == _claims;\r\n    }\r\n\r\n    function totalSupply() external view returns (uint256 total){\r\n        return Dogos.length; // length (total count) of the dogo array\r\n    }\r\n\r\n    function getDogo(uint _tokenID) external view returns (uint256 _genes, uint256 birthTime, uint256 _generation, uint256 _momID, uint256 _dadID, address _owner) {\r\n        Dogo storage tempDogo = Dogos[_tokenID]; // now tempDogo contains all of Dogos array at index [tokenID] from blockchain storage\r\n        birthTime = uint256(tempDogo.birthTime);\r\n        _momID = uint256(tempDogo.momID);\r\n        _dadID = uint256(tempDogo.dadID);\r\n        _generation = uint256(tempDogo.generation);\r\n        _genes = uint256(tempDogo.genes);\r\n        _owner = address(ownerOf(_tokenID));\r\n    }\r\n    \r\n    function createGen0Dogo(uint _genes) public onlyOwner {\r\n        // passing in genetic code, create the new dogo\r\n        require(gen0Counter < GEN0_LIMIT);\r\n        gen0Counter++;\r\n        _createDogo(0,0,1,_genes,address(this));\r\n    }\r\n\r\n    function _createDogo( uint256 _momID, uint256 _dadID, uint256 _generation, uint256 _genes, address _owner) private returns (uint256){\r\n        // create dogo from struct\r\n        Dogo memory _tempDogo = Dogo({ //instantiate tempDogo of Dogo\r\n            genes:_genes,\r\n            birthTime: uint64(now),\r\n            momID: uint32(_momID), \r\n            dadID: uint32(_dadID),\r\n            generation: uint16( _generation)\r\n        });\r\n        uint256 newDogoID = Dogos.push(_tempDogo) -1; // start first dog index 0\r\n\r\n        _transfer(address(0), _owner, newDogoID);\r\n\r\n        emit Birth (_owner, newDogoID, _momID, _dadID, _genes); // announce transfer \r\n\r\n        return newDogoID;\r\n    }\r\n\r\n   \r\n    function transfer(address _to, uint256 _tokenID) external { // transfers the dogo token from msg.sender to new _to address\r\n        require(msg.sender == address(this)); // make sure token is owned by contract\r\n        require(msg.sender != address(0)); //`to` cannot be the zero address\r\n        require(_owns(msg.sender, _tokenID)); //`to` can not be the contract address\r\n        _transfer(msg.sender, _to, _tokenID); // call internal transfer to complete\r\n    }\r\n\r\n    function _transfer(address _from, address _to, uint256 _tokenID) internal {\r\n        // split off transfer for re-use\r\n        dogoIndexToOwner[_tokenID] = _to;   // set array index of dogos to new owner\r\n        ownershipTokenCount[_to] = SafeMath.add(ownershipTokenCount[_to],1); // add to the total new owner count \r\n\r\n        if (_from != address(0)){ // check if there is an actual previous owner then decrease ownership count\r\n            ownershipTokenCount[_from] = SafeMath.sub(ownershipTokenCount[msg.sender],1);  // reduce previous owner's dogo count\r\n        }\r\n\r\n        emit Transfer (_from, _to, _tokenID); // announce transfer \r\n\r\n    }\r\n}\r\n\r\n\r\n/*\r\n****************************************************************************\r\nTEST COMMANDS IN TRUFFLE CONSOLE\r\n****************************************************************************\r\n\r\n\r\nvar instance = await Dogocontract.deployed()\r\n\r\ninstance.name()\r\n\r\ninstance.symbol()\r\n\r\ninstance.createGen0Dogo(1001) - try DNA: 10 13 96 10 10 1 1 13 13 1\r\n\r\n*/\r\n",
  "sourcePath": "I:\\Academy_Ivan\\solidity fun\\academy-cryptodogo\\client\\contracts\\Dogocontract.sol",
  "compiler": {
    "name": "solc",
    "version": "0.5.12+commit.7709ece9.Emscripten.clang"
  },
  "schemaVersion": "3.2.0",
  "updatedAt": "2020-08-31T17:30:23.101Z",
  "networkType": "ethereum",
  "devdoc": {
    "methods": {}
  },
  "userdoc": {
    "methods": {}
  }
}