{
  "contractName": "Dogocontract",
  "abi": [
    {
      "anonymous": false,
      "inputs": [
        {
          "indexed": true,
          "internalType": "address",
          "name": "owner",
          "type": "address"
        },
        {
          "indexed": true,
          "internalType": "address",
          "name": "approved",
          "type": "address"
        },
        {
          "indexed": true,
          "internalType": "uint256",
          "name": "tokenId",
          "type": "uint256"
        }
      ],
      "name": "Approval",
      "type": "event"
    },
    {
      "anonymous": false,
      "inputs": [
        {
          "indexed": true,
          "internalType": "address",
          "name": "owner",
          "type": "address"
        },
        {
          "indexed": true,
          "internalType": "address",
          "name": "operator",
          "type": "address"
        },
        {
          "indexed": false,
          "internalType": "bool",
          "name": "approved",
          "type": "bool"
        }
      ],
      "name": "ApprovalForAll",
      "type": "event"
    },
    {
      "anonymous": false,
      "inputs": [
        {
          "indexed": false,
          "internalType": "address",
          "name": "owner",
          "type": "address"
        },
        {
          "indexed": false,
          "internalType": "uint256",
          "name": "dogoID",
          "type": "uint256"
        },
        {
          "indexed": false,
          "internalType": "uint256",
          "name": "momID",
          "type": "uint256"
        },
        {
          "indexed": false,
          "internalType": "uint256",
          "name": "dadID",
          "type": "uint256"
        },
        {
          "indexed": false,
          "internalType": "uint256",
          "name": "genes",
          "type": "uint256"
        }
      ],
      "name": "Birth",
      "type": "event"
    },
    {
      "anonymous": false,
      "inputs": [
        {
          "indexed": true,
          "internalType": "address",
          "name": "from",
          "type": "address"
        },
        {
          "indexed": true,
          "internalType": "address",
          "name": "to",
          "type": "address"
        },
        {
          "indexed": true,
          "internalType": "uint256",
          "name": "tokenId",
          "type": "uint256"
        }
      ],
      "name": "Transfer",
      "type": "event"
    },
    {
      "constant": true,
      "inputs": [],
      "name": "GEN0_LIMIT",
      "outputs": [
        {
          "internalType": "uint256",
          "name": "",
          "type": "uint256"
        }
      ],
      "payable": false,
      "stateMutability": "view",
      "type": "function"
    },
    {
      "constant": true,
      "inputs": [
        {
          "internalType": "uint256",
          "name": "",
          "type": "uint256"
        }
      ],
      "name": "dogoIndexToApproved",
      "outputs": [
        {
          "internalType": "address",
          "name": "",
          "type": "address"
        }
      ],
      "payable": false,
      "stateMutability": "view",
      "type": "function"
    },
    {
      "constant": true,
      "inputs": [
        {
          "internalType": "uint256",
          "name": "",
          "type": "uint256"
        }
      ],
      "name": "dogoIndexToOwner",
      "outputs": [
        {
          "internalType": "address",
          "name": "",
          "type": "address"
        }
      ],
      "payable": false,
      "stateMutability": "view",
      "type": "function"
    },
    {
      "constant": true,
      "inputs": [],
      "name": "gen0Counter",
      "outputs": [
        {
          "internalType": "uint256",
          "name": "",
          "type": "uint256"
        }
      ],
      "payable": false,
      "stateMutability": "view",
      "type": "function"
    },
    {
      "constant": true,
      "inputs": [],
      "name": "name",
      "outputs": [
        {
          "internalType": "string",
          "name": "",
          "type": "string"
        }
      ],
      "payable": false,
      "stateMutability": "view",
      "type": "function"
    },
    {
      "constant": true,
      "inputs": [],
      "name": "owner",
      "outputs": [
        {
          "internalType": "address",
          "name": "",
          "type": "address"
        }
      ],
      "payable": false,
      "stateMutability": "view",
      "type": "function"
    },
    {
      "constant": true,
      "inputs": [],
      "name": "symbol",
      "outputs": [
        {
          "internalType": "string",
          "name": "",
          "type": "string"
        }
      ],
      "payable": false,
      "stateMutability": "view",
      "type": "function"
    },
    {
      "constant": true,
      "inputs": [
        {
          "internalType": "bytes4",
          "name": "_interfaceId",
          "type": "bytes4"
        }
      ],
      "name": "supportsInterface",
      "outputs": [
        {
          "internalType": "bool",
          "name": "",
          "type": "bool"
        }
      ],
      "payable": false,
      "stateMutability": "pure",
      "type": "function"
    },
    {
      "constant": true,
      "inputs": [
        {
          "internalType": "address",
          "name": "_owner",
          "type": "address"
        }
      ],
      "name": "balanceOf",
      "outputs": [
        {
          "internalType": "uint256",
          "name": "_balance",
          "type": "uint256"
        }
      ],
      "payable": false,
      "stateMutability": "view",
      "type": "function"
    },
    {
      "constant": true,
      "inputs": [
        {
          "internalType": "uint256",
          "name": "_tokenID",
          "type": "uint256"
        }
      ],
      "name": "ownerOf",
      "outputs": [
        {
          "internalType": "address",
          "name": "owner",
          "type": "address"
        }
      ],
      "payable": false,
      "stateMutability": "view",
      "type": "function"
    },
    {
      "constant": true,
      "inputs": [
        {
          "internalType": "address",
          "name": "_address",
          "type": "address"
        }
      ],
      "name": "allOwned",
      "outputs": [
        {
          "internalType": "uint256[]",
          "name": "",
          "type": "uint256[]"
        }
      ],
      "payable": false,
      "stateMutability": "view",
      "type": "function"
    },
    {
      "constant": true,
      "inputs": [],
      "name": "totalSupply",
      "outputs": [
        {
          "internalType": "uint256",
          "name": "total",
          "type": "uint256"
        }
      ],
      "payable": false,
      "stateMutability": "view",
      "type": "function"
    },
    {
      "constant": true,
      "inputs": [
        {
          "internalType": "uint256",
          "name": "_tokenID",
          "type": "uint256"
        }
      ],
      "name": "getDogo",
      "outputs": [
        {
          "internalType": "uint256",
          "name": "_genes",
          "type": "uint256"
        },
        {
          "internalType": "uint256",
          "name": "birthTime",
          "type": "uint256"
        },
        {
          "internalType": "uint256",
          "name": "_generation",
          "type": "uint256"
        },
        {
          "internalType": "uint256",
          "name": "_momID",
          "type": "uint256"
        },
        {
          "internalType": "uint256",
          "name": "_dadID",
          "type": "uint256"
        },
        {
          "internalType": "address",
          "name": "_owner",
          "type": "address"
        }
      ],
      "payable": false,
      "stateMutability": "view",
      "type": "function"
    },
    {
      "constant": false,
      "inputs": [
        {
          "internalType": "uint256",
          "name": "_genes",
          "type": "uint256"
        }
      ],
      "name": "createGen0Dogo",
      "outputs": [],
      "payable": false,
      "stateMutability": "nonpayable",
      "type": "function"
    },
    {
      "constant": false,
      "inputs": [
        {
          "internalType": "uint256",
          "name": "_dadID",
          "type": "uint256"
        },
        {
          "internalType": "uint256",
          "name": "_momID",
          "type": "uint256"
        }
      ],
      "name": "breed",
      "outputs": [
        {
          "internalType": "uint256",
          "name": "",
          "type": "uint256"
        }
      ],
      "payable": false,
      "stateMutability": "nonpayable",
      "type": "function"
    },
    {
      "constant": false,
      "inputs": [
        {
          "internalType": "address",
          "name": "_to",
          "type": "address"
        },
        {
          "internalType": "uint256",
          "name": "_tokenID",
          "type": "uint256"
        }
      ],
      "name": "transfer",
      "outputs": [],
      "payable": false,
      "stateMutability": "nonpayable",
      "type": "function"
    },
    {
      "constant": false,
      "inputs": [
        {
          "internalType": "address",
          "name": "_approved",
          "type": "address"
        },
        {
          "internalType": "uint256",
          "name": "_tokenID",
          "type": "uint256"
        }
      ],
      "name": "approve",
      "outputs": [],
      "payable": false,
      "stateMutability": "nonpayable",
      "type": "function"
    },
    {
      "constant": false,
      "inputs": [
        {
          "internalType": "address",
          "name": "_operator",
          "type": "address"
        },
        {
          "internalType": "bool",
          "name": "_approved",
          "type": "bool"
        }
      ],
      "name": "setApprovalForAll",
      "outputs": [],
      "payable": false,
      "stateMutability": "nonpayable",
      "type": "function"
    },
    {
      "constant": true,
      "inputs": [
        {
          "internalType": "uint256",
          "name": "_tokenID",
          "type": "uint256"
        }
      ],
      "name": "getApproved",
      "outputs": [
        {
          "internalType": "address",
          "name": "",
          "type": "address"
        }
      ],
      "payable": false,
      "stateMutability": "view",
      "type": "function"
    },
    {
      "constant": true,
      "inputs": [
        {
          "internalType": "address",
          "name": "_owner",
          "type": "address"
        },
        {
          "internalType": "address",
          "name": "_operator",
          "type": "address"
        }
      ],
      "name": "isApprovedForAll",
      "outputs": [
        {
          "internalType": "bool",
          "name": "",
          "type": "bool"
        }
      ],
      "payable": false,
      "stateMutability": "view",
      "type": "function"
    },
    {
      "constant": false,
      "inputs": [
        {
          "internalType": "address",
          "name": "_from",
          "type": "address"
        },
        {
          "internalType": "address",
          "name": "_to",
          "type": "address"
        },
        {
          "internalType": "uint256",
          "name": "_tokenID",
          "type": "uint256"
        }
      ],
      "name": "transferFrom",
      "outputs": [],
      "payable": false,
      "stateMutability": "nonpayable",
      "type": "function"
    },
    {
      "constant": false,
      "inputs": [
        {
          "internalType": "address",
          "name": "_from",
          "type": "address"
        },
        {
          "internalType": "address",
          "name": "_to",
          "type": "address"
        },
        {
          "internalType": "uint256",
          "name": "_tokenID",
          "type": "uint256"
        }
      ],
      "name": "safeTransferFrom",
      "outputs": [],
      "payable": false,
      "stateMutability": "nonpayable",
      "type": "function"
    },
    {
      "constant": false,
      "inputs": [
        {
          "internalType": "address",
          "name": "_from",
          "type": "address"
        },
        {
          "internalType": "address",
          "name": "_to",
          "type": "address"
        },
        {
          "internalType": "uint256",
          "name": "_tokenID",
          "type": "uint256"
        },
        {
          "internalType": "bytes",
          "name": "_data",
          "type": "bytes"
        }
      ],
      "name": "safeTransferFrom",
      "outputs": [],
      "payable": false,
      "stateMutability": "nonpayable",
      "type": "function"
    }
  ],
  "bytecode": "0x60806040526019600155336000806101000a81548173ffffffffffffffffffffffffffffffffffffffff021916908373ffffffffffffffffffffffffffffffffffffffff160217905550611f98806100586000396000f3fe608060405234801561001057600080fd5b506004361061014d5760003560e01c806385e5d72b116100c3578063b88d4fde1161007c578063b88d4fde14610774578063d134fe9f14610879578063d9ecad7b1461090a578063e985e9c514610956578063ef5e94aa146109d2578063f8cf3c9e146109f05761014d565b806385e5d72b146105425780638da5cb5b146105db57806395d89b411461062557806398868de9146106a8578063a22cb465146106d6578063a9059cbb146107265761014d565b806323b872dd1161011557806323b872dd1461031457806342842e0e146103825780634fc75b65146103f05780636352211e1461045e57806370a08231146104cc57806371eca99d146105245761014d565b806301ffc9a71461015257806306fdde03146101b7578063081812fc1461023a578063095ea7b3146102a857806318160ddd146102f6575b600080fd5b61019d6004803603602081101561016857600080fd5b8101908080357bffffffffffffffffffffffffffffffffffffffffffffffffffffffff19169060200190929190505050610a5e565b604051808215151515815260200191505060405180910390f35b6101bf610afe565b6040518080602001828103825283818151815260200191508051906020019080838360005b838110156101ff5780820151818401526020810190506101e4565b50505050905090810190601f16801561022c5780820380516001836020036101000a031916815260200191505b509250505060405180910390f35b6102666004803603602081101561025057600080fd5b8101908080359060200190929190505050610b37565b604051808273ffffffffffffffffffffffffffffffffffffffff1673ffffffffffffffffffffffffffffffffffffffff16815260200191505060405180910390f35b6102f4600480360360408110156102be57600080fd5b81019080803573ffffffffffffffffffffffffffffffffffffffff16906020019092919080359060200190929190505050610b85565b005b6102fe610c5a565b6040518082815260200191505060405180910390f35b6103806004803603606081101561032a57600080fd5b81019080803573ffffffffffffffffffffffffffffffffffffffff169060200190929190803573ffffffffffffffffffffffffffffffffffffffff16906020019092919080359060200190929190505050610c67565b005b6103ee6004803603606081101561039857600080fd5b81019080803573ffffffffffffffffffffffffffffffffffffffff169060200190929190803573ffffffffffffffffffffffffffffffffffffffff16906020019092919080359060200190929190505050610d2f565b005b61041c6004803603602081101561040657600080fd5b8101908080359060200190929190505050610d4f565b604051808273ffffffffffffffffffffffffffffffffffffffff1673ffffffffffffffffffffffffffffffffffffffff16815260200191505060405180910390f35b61048a6004803603602081101561047457600080fd5b8101908080359060200190929190505050610d82565b604051808273ffffffffffffffffffffffffffffffffffffffff1673ffffffffffffffffffffffffffffffffffffffff16815260200191505060405180910390f35b61050e600480360360208110156104e257600080fd5b81019080803573ffffffffffffffffffffffffffffffffffffffff169060200190929190505050610dd0565b6040518082815260200191505060405180910390f35b61052c610e19565b6040518082815260200191505060405180910390f35b6105846004803603602081101561055857600080fd5b81019080803573ffffffffffffffffffffffffffffffffffffffff169060200190929190505050610e1f565b6040518080602001828103825283818151815260200191508051906020019060200280838360005b838110156105c75780820151818401526020810190506105ac565b505050509050019250505060405180910390f35b6105e3610f21565b604051808273ffffffffffffffffffffffffffffffffffffffff1673ffffffffffffffffffffffffffffffffffffffff16815260200191505060405180910390f35b61062d610f46565b6040518080602001828103825283818151815260200191508051906020019080838360005b8381101561066d578082015181840152602081019050610652565b50505050905090810190601f16801561069a5780820380516001836020036101000a031916815260200191505b509250505060405180910390f35b6106d4600480360360208110156106be57600080fd5b8101908080359060200190929190505050610f7f565b005b610724600480360360408110156106ec57600080fd5b81019080803573ffffffffffffffffffffffffffffffffffffffff16906020019092919080351515906020019092919050505061100d565b005b6107726004803603604081101561073c57600080fd5b81019080803573ffffffffffffffffffffffffffffffffffffffff16906020019092919080359060200190929190505050611147565b005b6108776004803603608081101561078a57600080fd5b81019080803573ffffffffffffffffffffffffffffffffffffffff169060200190929190803573ffffffffffffffffffffffffffffffffffffffff16906020019092919080359060200190929190803590602001906401000000008111156107f157600080fd5b82018360208201111561080357600080fd5b8035906020019184600183028401116401000000008311171561082557600080fd5b91908080601f016020809104026020016040519081016040528093929190818152602001838380828437600081840152601f19601f8201169050808301925050505050505091929192905050506111dc565b005b6108a56004803603602081101561088f57600080fd5b81019080803590602001909291905050506112b2565b604051808781526020018681526020018581526020018481526020018381526020018273ffffffffffffffffffffffffffffffffffffffff1673ffffffffffffffffffffffffffffffffffffffff168152602001965050505050505060405180910390f35b6109406004803603604081101561092057600080fd5b81019080803590602001909291908035906020019092919050505061136e565b6040518082815260200191505060405180910390f35b6109b86004803603604081101561096c57600080fd5b81019080803573ffffffffffffffffffffffffffffffffffffffff169060200190929190803573ffffffffffffffffffffffffffffffffffffffff169060200190929190505050611441565b604051808215151515815260200191505060405180910390f35b6109da6114d5565b6040518082815260200191505060405180910390f35b610a1c60048036036020811015610a0657600080fd5b81019080803590602001909291905050506114db565b604051808273ffffffffffffffffffffffffffffffffffffffff1673ffffffffffffffffffffffffffffffffffffffff16815260200191505060405180910390f35b60006380ac58cd60e01b7bffffffffffffffffffffffffffffffffffffffffffffffffffffffff1916827bffffffffffffffffffffffffffffffffffffffffffffffffffffffff19161480610af757506301ffc9a760e01b7bffffffffffffffffffffffffffffffffffffffffffffffffffffffff1916827bffffffffffffffffffffffffffffffffffffffffffffffffffffffff1916145b9050919050565b6040518060400160405280600b81526020017f43727970746f446f676f7300000000000000000000000000000000000000000081525081565b60006002805490508210610b4a57600080fd5b6005600083815260200190815260200160002060009054906101000a900473ffffffffffffffffffffffffffffffffffffffff169050919050565b610b8f338261150e565b610b9857600080fd5b6002805490508110610ba957600080fd5b816005600083815260200190815260200160002060006101000a81548173ffffffffffffffffffffffffffffffffffffffff021916908373ffffffffffffffffffffffffffffffffffffffff160217905550808273ffffffffffffffffffffffffffffffffffffffff163373ffffffffffffffffffffffffffffffffffffffff167f8c5be1e5ebec7d5bd14f71427d1e84f3dd0314c0f7b2291e5b200ac8c7c3b92560405160405180910390a45050565b6000600280549050905090565b6002805490508110610c7857600080fd5b610c82838261150e565b610c8b57600080fd5b8273ffffffffffffffffffffffffffffffffffffffff163373ffffffffffffffffffffffffffffffffffffffff161480610ccb5750610cca338261157a565b5b80610cdc5750610cdb8333611441565b5b610ce557600080fd5b600073ffffffffffffffffffffffffffffffffffffffff168273ffffffffffffffffffffffffffffffffffffffff161415610d1f57600080fd5b610d2a8383836115e6565b505050565b610d4a838383604051806020016040528060008152506111dc565b505050565b60036020528060005260406000206000915054906101000a900473ffffffffffffffffffffffffffffffffffffffff1681565b60006002805490508210610d9557600080fd5b6003600083815260200190815260200160002060009054906101000a900473ffffffffffffffffffffffffffffffffffffffff169050919050565b6000600460008373ffffffffffffffffffffffffffffffffffffffff1673ffffffffffffffffffffffffffffffffffffffff168152602001908152602001600020549050919050565b60015481565b606080600460008473ffffffffffffffffffffffffffffffffffffffff1673ffffffffffffffffffffffffffffffffffffffff16815260200190815260200160002054604051908082528060200260200182016040528015610e905781602001602082028038833980820191505090505b509050600080905060008090505b600280549050811015610f16578473ffffffffffffffffffffffffffffffffffffffff16610ecb82610d82565b73ffffffffffffffffffffffffffffffffffffffff161415610f095780838381518110610ef457fe5b60200260200101818152505081806001019250505b8080600101915050610e9e565b508192505050919050565b6000809054906101000a900473ffffffffffffffffffffffffffffffffffffffff1681565b6040518060400160405280600381526020017f43444f000000000000000000000000000000000000000000000000000000000081525081565b6000809054906101000a900473ffffffffffffffffffffffffffffffffffffffff1673ffffffffffffffffffffffffffffffffffffffff163373ffffffffffffffffffffffffffffffffffffffff1614610fd857600080fd5b60015460075410610fe857600080fd5b6007600081548092919060010191905055506110096000806000843361181d565b5050565b3373ffffffffffffffffffffffffffffffffffffffff168273ffffffffffffffffffffffffffffffffffffffff16141561104657600080fd5b80600660003373ffffffffffffffffffffffffffffffffffffffff1673ffffffffffffffffffffffffffffffffffffffff16815260200190815260200160002060008473ffffffffffffffffffffffffffffffffffffffff1673ffffffffffffffffffffffffffffffffffffffff16815260200190815260200160002060006101000a81548160ff0219169083151502179055508173ffffffffffffffffffffffffffffffffffffffff163373ffffffffffffffffffffffffffffffffffffffff167f17307eab39ab6107e8899845ad3d59bd9653f200f220920489ca2b5937696c3183604051808215151515815260200191505060405180910390a35050565b3073ffffffffffffffffffffffffffffffffffffffff168273ffffffffffffffffffffffffffffffffffffffff16141561118057600080fd5b600073ffffffffffffffffffffffffffffffffffffffff168273ffffffffffffffffffffffffffffffffffffffff1614156111ba57600080fd5b6111c4338261150e565b6111cd57600080fd5b6111d83383836115e6565b5050565b6111e6848361150e565b6111ef57600080fd5b8373ffffffffffffffffffffffffffffffffffffffff163373ffffffffffffffffffffffffffffffffffffffff16148061122f575061122e338361157a565b5b80611240575061123f8433611441565b5b61124957600080fd5b600280549050821061125a57600080fd5b600073ffffffffffffffffffffffffffffffffffffffff168373ffffffffffffffffffffffffffffffffffffffff16141561129457600080fd5b6112a0848484846119e8565b506112ac8484846115e6565b50505050565b6000806000806000806000600288815481106112ca57fe5b906000526020600020906002020190508060010160009054906101000a900467ffffffffffffffff1667ffffffffffffffff1695508060010160089054906101000a900463ffffffff1663ffffffff16935080600101600c9054906101000a900463ffffffff1663ffffffff1692508060010160109054906101000a900461ffff1661ffff1694508060000154965061136288610d82565b91505091939550919395565b600061137a338461150e565b801561138c575061138b338361150e565b5b61139557600080fd5b6000806113a185611bcc565b915091506000806113b186611bcc565b9150915060006113c18584611c14565b905060008090506000809050838611156113f4578386039050600281816113e457fe5b0486806001019750039150611426565b8584111561141b5785840390506002818161140b57fe5b0484806001019550039150611425565b8580600101965091505b5b611433898b84863361181d565b505050505050505092915050565b6000600660008473ffffffffffffffffffffffffffffffffffffffff1673ffffffffffffffffffffffffffffffffffffffff16815260200190815260200160002060008373ffffffffffffffffffffffffffffffffffffffff1673ffffffffffffffffffffffffffffffffffffffff16815260200190815260200160002060009054906101000a900460ff16905092915050565b60075481565b60056020528060005260406000206000915054906101000a900473ffffffffffffffffffffffffffffffffffffffff1681565b60008273ffffffffffffffffffffffffffffffffffffffff166003600084815260200190815260200160002060009054906101000a900473ffffffffffffffffffffffffffffffffffffffff1673ffffffffffffffffffffffffffffffffffffffff1614905092915050565b60008273ffffffffffffffffffffffffffffffffffffffff166005600084815260200190815260200160002060009054906101000a900473ffffffffffffffffffffffffffffffffffffffff1673ffffffffffffffffffffffffffffffffffffffff1614905092915050565b816003600083815260200190815260200160002060006101000a81548173ffffffffffffffffffffffffffffffffffffffff021916908373ffffffffffffffffffffffffffffffffffffffff160217905550611682600460008473ffffffffffffffffffffffffffffffffffffffff1673ffffffffffffffffffffffffffffffffffffffff168152602001908152602001600020546001611d1d565b600460008473ffffffffffffffffffffffffffffffffffffffff1673ffffffffffffffffffffffffffffffffffffffff16815260200190815260200160002081905550600073ffffffffffffffffffffffffffffffffffffffff168373ffffffffffffffffffffffffffffffffffffffff16146117bd57611743600460003373ffffffffffffffffffffffffffffffffffffffff1673ffffffffffffffffffffffffffffffffffffffff168152602001908152602001600020546001611da5565b600460008573ffffffffffffffffffffffffffffffffffffffff1673ffffffffffffffffffffffffffffffffffffffff168152602001908152602001600020819055506005600082815260200190815260200160002060006101000a81549073ffffffffffffffffffffffffffffffffffffffff02191690555b808273ffffffffffffffffffffffffffffffffffffffff168473ffffffffffffffffffffffffffffffffffffffff167fddf252ad1be2c89b69c2b068fc378daa952ba7f163c4a11628f55a4df523b3ef60405160405180910390a4505050565b6000611827611ec8565b6040518060a001604052808581526020014267ffffffffffffffff1681526020018863ffffffff1681526020018763ffffffff1681526020018661ffff16815250905060006001600283908060018154018082558091505090600182039060005260206000209060020201600090919290919091506000820151816000015560208201518160010160006101000a81548167ffffffffffffffff021916908367ffffffffffffffff16021790555060408201518160010160086101000a81548163ffffffff021916908363ffffffff160217905550606082015181600101600c6101000a81548163ffffffff021916908363ffffffff16021790555060808201518160010160106101000a81548161ffff021916908361ffff1602179055505050039050611957600085836115e6565b7f0a5311bd2a6608f08a180df2ee7c5946819a649b204b554bb8e39825b2c50ad584828a8a89604051808673ffffffffffffffffffffffffffffffffffffffff1673ffffffffffffffffffffffffffffffffffffffff1681526020018581526020018481526020018381526020018281526020019550505050505060405180910390a1809250505095945050505050565b60006119f384611def565b611a005760019050611bc4565b60008473ffffffffffffffffffffffffffffffffffffffff1663150b7a02338887876040518563ffffffff1660e01b8152600401808573ffffffffffffffffffffffffffffffffffffffff1673ffffffffffffffffffffffffffffffffffffffff1681526020018473ffffffffffffffffffffffffffffffffffffffff1673ffffffffffffffffffffffffffffffffffffffff16815260200183815260200180602001828103825283818151815260200191508051906020019080838360005b83811015611adb578082015181840152602081019050611ac0565b50505050905090810190601f168015611b085780820380516001836020036101000a031916815260200191505b5095505050505050602060405180830381600087803b158015611b2a57600080fd5b505af1158015611b3e573d6000803e3d6000fd5b505050506040513d6020811015611b5457600080fd5b810190808051906020019092919050505090506040518080611f35602f9139602f01905060405180910390207bffffffffffffffffffffffffffffffffffffffffffffffffffffffff1916817bffffffffffffffffffffffffffffffffffffffffffffffffffffffff1916149150505b949350505050565b600080600060028481548110611bde57fe5b906000526020600020906002020190508060010160109054906101000a900461ffff1661ffff1691508060000154925050915091565b6000611c1e611f11565b60006101ff4281611c2b57fe5b0690506000600190506000600890506000600192505b6101008311611ccf576000838561ffff161614611c805760648781611c6257fe5b0660ff16858360098110611c7257fe5b602002018181525050611cc4565b60648881611c8a57fe5b0660ff16858360098110611c9a57fe5b60200201818152505060648781611cad57fe5b04965060648881611cba57fe5b0497506001820391505b600283029250611c41565b600092505b600960011015611d0f57848360098110611cea57fe5b60200201518101905060088314611d02576064810290505b8280600101935050611cd4565b809550505050505092915050565b600080828401905083811015611d9b576040517f08c379a000000000000000000000000000000000000000000000000000000000815260040180806020018281038252601b8152602001807f536166654d6174683a206164646974696f6e206f766572666c6f77000000000081525060200191505060405180910390fd5b8091505092915050565b6000611de783836040518060400160405280601e81526020017f536166654d6174683a207375627472616374696f6e206f766572666c6f770000815250611e08565b905092915050565b600080823b905060008163ffffffff1611915050919050565b6000838311158290611eb5576040517f08c379a00000000000000000000000000000000000000000000000000000000081526004018080602001828103825283818151815260200191508051906020019080838360005b83811015611e7a578082015181840152602081019050611e5f565b50505050905090810190601f168015611ea75780820380516001836020036101000a031916815260200191505b509250505060405180910390fd5b5060008385039050809150509392505050565b6040518060a0016040528060008152602001600067ffffffffffffffff168152602001600063ffffffff168152602001600063ffffffff168152602001600061ffff1681525090565b60405180610120016040528060099060208202803883398082019150509050509056fe6f6e455243373231526563656976656428616464726573732c616464726573732c75696e743235362c627974657329a265627a7a72315820e924b2237e7446886049bfea07788217aa9fbb85e6eeeb91a1ebe07bedc9577964736f6c634300050c0032",
  "source": "// SPDX-License-Identifier: MIT\r\npragma solidity ^0.5.12;\r\n\r\nimport \"./IERC721.sol\";\r\nimport \"./Safemath.sol\";\r\nimport \"./IERCReceiver.sol\";\r\n\r\ncontract Ownable{\r\n    address public owner;\r\n\r\n\r\n\r\n    modifier onlyOwner(){\r\n        require(msg.sender == owner);\r\n        _; //Continue execution\r\n    }\r\n\r\n    constructor() public{\r\n        owner = msg.sender;\r\n    }\r\n}\r\n\r\ncontract Dogocontract is IERC721 , Ownable {\r\n    string public constant name = \"CryptoDogos\";\r\n    string public constant symbol = \"CDO\";\r\n    uint256 public GEN0_LIMIT = 25; //... and then there were 25. 25 Brave new Dogos.\r\n\r\n    bytes4 internal constant SPECIAL_ERC721_RECEIVED = bytes4(keccak256(\"onERC721Received(address,address,uint256,bytes)\"));\r\n    bytes4 private constant _INTERFACE_ID_ERC721 = 0x80ac58cd;\r\n    bytes4 private constant _INTERFACE_ID_ERC165 = 0x01ffc9a7;\r\n\r\n    struct Dogo {\r\n        uint256 genes;\r\n        uint64 birthTime;\r\n        uint32 momID;\r\n        uint32 dadID;\r\n        uint16 generation;\r\n    }\r\n        \r\n    Dogo[] Dogos; //array of dogos\r\n    mapping (uint256 => address) public dogoIndexToOwner; // map dog id to owner address\r\n    mapping(address => uint256) ownershipTokenCount; // count of dogos belonging to an address\r\n    mapping (uint256 => address) public dogoIndexToApproved; // mapping to authorize trading\r\n    mapping (address => mapping (address => bool)) private _operatorApprovals; // third party permission from owner address to \"operator\"\r\n        // e.g. _operatorApprovals[MYADDR][OPERATORADDR] = true;\r\n\r\n    uint256 public gen0Counter;\r\n\r\n    event Transfer(address indexed from, address indexed to, uint256 indexed tokenId); //when `tokenId` token is transfered from `from` to `to`.\r\n    event Approval(address indexed owner, address indexed approved, uint256 indexed tokenId); // when `owner` enables `approved` to manage the `tokenId` token.\r\n    event Birth(address owner, uint256 dogoID, uint256 momID, uint256 dadID, uint256 genes); // when new dogo is born\r\n    event ApprovalForAll(address indexed owner, address indexed operator, bool approved); // event when an address is approved for all tokens\r\n    \r\n    function supportsInterface(bytes4 _interfaceId) external pure returns (bool){\r\n        return(_interfaceId == _INTERFACE_ID_ERC721 || _interfaceId == _INTERFACE_ID_ERC165); // adhering to token standard to allow user to know supported interfaces\r\n    }\r\n\r\n    function _safeTransfer(address _from, address _to, uint256 _tokenID, bytes memory _data) internal {\r\n        _transfer(_from, _to, _tokenID);\r\n        require(_checkERC721Support( _from,  _to,  _tokenID,  _data));\r\n   \r\n    }\r\n\r\n    function balanceOf(address _owner) external view returns (uint256 _balance) {\r\n        return ownershipTokenCount[_owner];\r\n    } \r\n\r\n    function ownerOf(uint256 _tokenID) public view returns (address owner){\r\n        require(_tokenID < Dogos.length); // make sure dogo exists  \r\n        return dogoIndexToOwner[_tokenID]; // provide the holder address from the dogo array index\r\n\r\n    }\r\n\r\n    function allOwned(address _address) public view returns ( uint [] memory){\r\n        uint[] memory ownedArray = new uint[](ownershipTokenCount[_address]); //create array to hold array of IDs owned by msg.sender set max to ownedCount\r\n        uint ownedIndex = 0; // index for owned array\r\n        for (uint i = 0; i < Dogos.length; i++){\r\n            if (ownerOf(i) == _address) {\r\n                ownedArray[ownedIndex] = i;\r\n                ownedIndex++;\r\n            }\r\n        }\r\n        return ownedArray;\r\n\r\n    }\r\n\r\n\r\n    function _owns(address _claims, uint256 _tokenID) internal view returns (bool) {\r\n        return dogoIndexToOwner[_tokenID] == _claims;\r\n    }\r\n    \r\n    function _operatorFor(address _claims, uint256 _tokenID) internal view returns (bool) {\r\n        return dogoIndexToApproved[_tokenID] == _claims;\r\n    }\r\n\r\n    function totalSupply() external view returns (uint256 total){\r\n        return Dogos.length; // length (total count) of the dogo array\r\n    }\r\n\r\n    function getDogo(uint _tokenID) external view returns (uint256 _genes, uint256 birthTime, uint256 _generation, uint256 _momID, uint256 _dadID, address _owner) {\r\n        Dogo storage tempDogo = Dogos[_tokenID]; // now tempDogo contains all of Dogos array at index [tokenID] from blockchain storage\r\n        birthTime = uint256(tempDogo.birthTime);\r\n        _momID = uint256(tempDogo.momID);\r\n        _dadID = uint256(tempDogo.dadID);\r\n        _generation = uint256(tempDogo.generation);\r\n        _genes = uint256(tempDogo.genes);\r\n        _owner = address(ownerOf(_tokenID));\r\n    }\r\n    \r\n    function _getDogoBreed(uint _tokenID) internal view returns (uint256 _genes,  uint256 _generation) {\r\n        Dogo storage tempDogo = Dogos[_tokenID]; // now tempDogo contains all of Dogos array at index [tokenID] from blockchain storage\r\n        _generation = uint256(tempDogo.generation);\r\n        _genes = uint256(tempDogo.genes);\r\n\r\n    }\r\n    \r\n    function createGen0Dogo(uint _genes) public onlyOwner  {\r\n        // passing in genetic code, create the new dogo\r\n        require(gen0Counter < GEN0_LIMIT);\r\n        \r\n        gen0Counter++;\r\n        _createDogo(0,0,0,_genes,msg.sender);\r\n    }\r\n\r\n    function _createDogo( uint256 _momID, uint256 _dadID, uint256 _generation, uint256 _genes, address _owner) private returns (uint256){\r\n        // create dogo from struct\r\n        Dogo memory _tempDogo = Dogo({ //instantiate tempDogo of Dogo\r\n            genes:_genes,\r\n            birthTime: uint64(now),\r\n            momID: uint32(_momID), \r\n            dadID: uint32(_dadID),\r\n            generation: uint16( _generation)\r\n        });\r\n        uint256 newDogoID = Dogos.push(_tempDogo) -1; // start first dog index 0\r\n\r\n        _transfer(address(0), _owner, newDogoID);\r\n\r\n        emit Birth (_owner, newDogoID, _momID, _dadID, _genes); // announce transfer \r\n\r\n        return newDogoID;\r\n    }\r\n\r\n\r\n    function breed(uint256 _dadID, uint256 _momID) public returns (uint256){\r\n        require(_owns(msg.sender,_dadID) && _owns(msg.sender,_momID)); // confirm both dogos owned by breeder\r\n\r\n        // gather mom DNA  (uint256 _genes, uint256 birthTime, uint256 _generation, uint256 _momID, uint256 _dadID, address _owner)\r\n        (uint256 _dadDNA, uint256 _dadGen) = _getDogoBreed(_dadID);        // call internal function and gather dad DNA\r\n        (uint256 _momDNA, uint256 _momGen) = _getDogoBreed(_momID);\r\n\r\n        uint256 newDNA = _mixDNA(_dadDNA, _momDNA); // send to blend mixing algo for genetics\r\n        uint256 offspringGen = 0;\r\n        uint256 genDiff = 0;\r\n        if (_dadGen > _momGen){\r\n            genDiff = _dadGen - _momGen;\r\n            offspringGen = (_dadGen++)-(genDiff/2); \r\n        } else if (_momGen > _dadGen){\r\n            genDiff = _momGen - _dadGen;\r\n            offspringGen = (_momGen++)-(genDiff/2); // half the diff\r\n        } else {\r\n            offspringGen = _dadGen++; // simply add to gen\r\n        }\r\n        \r\n        _createDogo(_momID,_dadID, offspringGen, newDNA, msg.sender ); // _createDogo( uint256 _momID, uint256 _dadID, uint256 _generation, uint256 _genes, address _owner) \r\n    }\r\n   \r\n   \r\n   // randomness - \r\n   /*   1 - current blockhash - too easy to guess\r\n        2 - Oracle - can be down or bribed\r\n        3 - Chainlink VRF\r\n    */\r\n   \r\n    \r\n    function _mixDNA(uint256 _dadDNA, uint256 _momDNA) internal view returns (uint256) { \r\n        // example gene 809674298261431241\r\n        // pair 101396101011131311,492096607322982221\r\n        // example gene 80 96 74 29 82 61 43 12 41 \r\n        // code modified since an extra color gene was added\r\n        // Filip   gene 11 22 33 44 55 88 77 88\r\n        uint256[9] memory geneArray;\r\n        uint16 random = uint16(now % 511); // produce  9 digit random value for genetic mixing\r\n        uint256 i = 1;\r\n        uint256 index = 8;\r\n        uint256 newGene;\r\n\r\n        for (i = 1; i <= 256; i = i * 2) {\r\n            // 1,2,4,8,16,32,64,128,256\r\n           \r\n            if (random & i != 0) { // true, so use mom's gene\r\n                geneArray[index] = uint8(_momDNA % 100);\r\n\r\n            } else { // false (0), so use dad's gene\r\n                geneArray[index] = uint8(_dadDNA % 100); // remaining double digit\r\n                _momDNA = _momDNA / 100; // (first part of mom)\r\n                _dadDNA = _dadDNA / 100; // (first part of dad)\r\n                index = index - 1; // step backwards\r\n           \r\n            }\r\n\r\n        }\r\n            \r\n\r\n            //          pos  0  1  2  3  4  5  6  7  8       \r\n            // example gene [80 96 74 29 82 61 43 12 41]\r\n            for (i = 0; 1 < 9; i++) {\r\n                newGene = newGene + geneArray[i];\r\n                if(i != 8){\r\n                    newGene = newGene * 100;\r\n                }\r\n            }\r\n            return newGene;\r\n      \r\n    }\r\n    \r\n   \r\n    function transfer(address _to, uint256 _tokenID) external { // transfers the dogo token from msg.sender to new _to address\r\n        require(_to != address(this)); // `to` can not be the contract address.\r\n        require(_to != address(0)); //`to` cannot be the zero address\r\n        require(_owns(msg.sender, _tokenID)); // `tokenId` token must be owned by `msg.sender`.\r\n        _transfer(msg.sender, _to, _tokenID); // call internal transfer to complete - emit performed at internal transfer\r\n    }\r\n\r\n    function _transfer(address _from, address _to, uint256 _tokenID) internal {\r\n        // split off transfer for re-use\r\n        dogoIndexToOwner[_tokenID] = _to;   // set array index of dogos to new owner\r\n        ownershipTokenCount[_to] = SafeMath.add(ownershipTokenCount[_to],1); // add to the total new owner count \r\n\r\n        if (_from != address(0)){ // check if there is an actual previous owner then decrease ownership count\r\n            ownershipTokenCount[_from] = SafeMath.sub(ownershipTokenCount[msg.sender],1);  // reduce previous owner's dogo count\r\n            delete dogoIndexToApproved[_tokenID]; // remove ability to approve others since they no longer own the token\r\n        }\r\n\r\n        emit Transfer (_from, _to, _tokenID); // announce transfer \r\n\r\n    }\r\n\r\n\r\n\r\n    function approve(address _approved, uint256 _tokenID) external {\r\n        require(_owns(msg.sender, _tokenID)); // require address is the owner - nacho keys nacho token.\r\n        require(_tokenID < Dogos.length); // make sure dogo exists \r\n        dogoIndexToApproved[_tokenID] = _approved; // add the approved address to the  token ID mapping\r\n        // no need to add operator mapping since owner has rights\r\n        emit Approval(msg.sender, _approved, _tokenID); // call event to log owner sending tokenID to the approved address\r\n        \r\n    }\r\n    \r\n \r\n    function setApprovalForAll(address _operator, bool _approved) external { // sets approval for all of `msg.sender`'s assets - multiple operators per owner.\r\n      \r\n        require(_operator != msg.sender); \r\n         _operatorApprovals[msg.sender][_operator] = _approved;\r\n\r\n           /// @param _approved True if the operator is approved, false to revoke approval\r\n        emit ApprovalForAll(msg.sender,_operator, _approved);\r\n        \r\n    }\r\n\r\n\r\n    function getApproved(uint256 _tokenID) external view returns (address){  // getter\r\n        require(_tokenID < Dogos.length); // make sure dogo exists \r\n        return dogoIndexToApproved[_tokenID]; // @return The approved address for this NFT, or the zero address if there is none\r\n        \r\n    }\r\n    \r\n\r\n    function isApprovedForAll(address _owner, address _operator) public view returns (bool) { //getter\r\n        // @notice Query if an address is an authorized operator for another address\r\n        return   _operatorApprovals[_owner][_operator]; // @return True if `_operator` is an approved operator for `_owner`, false otherwise\r\n        \r\n    }\r\n    \r\n\r\n    function transferFrom(address _from, address _to, uint256 _tokenID) external{\r\n        require(_tokenID < Dogos.length);  // make sure dogo exists      \r\n        require(_owns(_from , _tokenID));     /// @param _from The current owner of the NFT in case someone sending on behalf of owner cannot use msg.sender\r\n        require(msg.sender == _from || _operatorFor(msg.sender, _tokenID) || isApprovedForAll(_from, msg.sender) ); // either the owner, or specific operator or approved address for all.\r\n        require(_to != address(0));    /// @param _to The new owner - make sure this is not sending to the zero address\r\n        _transfer(_from, _to, _tokenID); // call internal transfer to complete\r\n        \r\n    }    \r\n        \r\n        \r\n    function _checkERC721Support(address _from, address _to, uint256 _tokenID, bytes memory _data) internal returns (bool) {\r\n        // check for contract\r\n        if (!_isContract(_to)){\r\n            // correctly supports ERC721 \r\n                return true;\r\n        }\r\n        \r\n        \r\n        bytes4 returnData =  IERCReceiver (_to).onERC721Received(msg.sender, _from, _tokenID, _data); // calling interface function to get bytes to check if this is a contract that can accommodate ERC721 tokens\r\n        return returnData == SPECIAL_ERC721_RECEIVED;\r\n        \r\n        \r\n    }\r\n        \r\n        \r\n\r\n    ///  checks if `_to` is a smart contract (code size > 0). If so, it calls\r\n    ///  `onERC721Received` on `_to` and throws if the return value is not\r\n    ///  `bytes4(keccak256(\"onERC721Received(address,address,uint256,bytes)\"))`.\r\n\r\n    function safeTransferFrom(address _from, address _to, uint256 _tokenID, bytes memory _data) public {\r\n        require(_owns(_from , _tokenID));     /// @param _from The current owner of the NFT in case someone sending on behalf of owner cannot use msg.sender\r\n        require(msg.sender == _from || _operatorFor(msg.sender, _tokenID) || isApprovedForAll( _from, msg.sender) ); // either the owner, or specific operator or approved address for all.\r\n        require(_tokenID < Dogos.length);  // make sure dogo exists      \r\n        require(_to != address(0));    /// @param _to The new owner - make sure this is not sending to the zero address\r\n        _checkERC721Support(_from, _to, _tokenID, _data);\r\n        _transfer(_from, _to, _tokenID); // call internal transfer to complete\r\n        \r\n    }\r\n\r\n\r\n    function safeTransferFrom(address _from, address _to, uint256 _tokenID) public {\r\n        safeTransferFrom(_from, _to, _tokenID, \"\");\r\n        \r\n    }\r\n        \r\n        \r\n    function _isContract (address _to) view internal returns (bool)  {\r\n        // codesize 0 for wallet\r\n        uint32 size;\r\n        assembly{\r\n            size := extcodesize(_to)\r\n        }\r\n        return size > 0;\r\n    }  \r\n    \r\n    \r\n    \r\n        \r\n}\r\n\r\n\r\n/*\r\n****************************************************************************\r\nTEST COMMANDS IN TRUFFLE CONSOLE\r\n****************************************************************************\r\n\r\n\r\nvar instance = await Dogocontract.deployed()\r\n\r\ninstance.name()\r\n\r\ninstance.symbol()\r\n\r\ninstance.createGen0Dogo(1001) - try DNA: 10 13 96 10 10 1 1 13 13 1\r\n\r\n*/\r\n",
  "sourcePath": "I:\\Academy_Ivan\\solidity fun\\academy-cryptodogo\\client\\contracts\\Dogocontract.sol",
  "compiler": {
    "name": "solc",
    "version": "0.5.12+commit.7709ece9.Emscripten.clang"
  },
  "schemaVersion": "3.2.0",
  "updatedAt": "2020-09-22T11:05:41.229Z",
  "devdoc": {
    "methods": {}
  },
  "userdoc": {
    "methods": {
      "safeTransferFrom(address,address,uint256,bytes)": {
        "notice": "checks if `_to` is a smart contract (code size > 0). If so, it calls  `onERC721Received` on `_to` and throws if the return value is not  `bytes4(keccak256(\"onERC721Received(address,address,uint256,bytes)\"))`."
      }
    }
  }
}