{
  "contractName": "Dogocontract",
  "abi": [
    {
      "anonymous": false,
      "inputs": [
        {
          "indexed": true,
          "internalType": "address",
          "name": "owner",
          "type": "address"
        },
        {
          "indexed": true,
          "internalType": "address",
          "name": "approved",
          "type": "address"
        },
        {
          "indexed": true,
          "internalType": "uint256",
          "name": "tokenId",
          "type": "uint256"
        }
      ],
      "name": "Approval",
      "type": "event"
    },
    {
      "anonymous": false,
      "inputs": [
        {
          "indexed": true,
          "internalType": "address",
          "name": "from",
          "type": "address"
        },
        {
          "indexed": true,
          "internalType": "address",
          "name": "to",
          "type": "address"
        },
        {
          "indexed": true,
          "internalType": "uint256",
          "name": "tokenId",
          "type": "uint256"
        }
      ],
      "name": "Transfer",
      "type": "event"
    },
    {
      "constant": true,
      "inputs": [
        {
          "internalType": "uint256",
          "name": "",
          "type": "uint256"
        }
      ],
      "name": "dogoIndexToOwner",
      "outputs": [
        {
          "internalType": "address",
          "name": "",
          "type": "address"
        }
      ],
      "payable": false,
      "stateMutability": "view",
      "type": "function"
    },
    {
      "constant": true,
      "inputs": [],
      "name": "name",
      "outputs": [
        {
          "internalType": "string",
          "name": "",
          "type": "string"
        }
      ],
      "payable": false,
      "stateMutability": "view",
      "type": "function"
    },
    {
      "constant": true,
      "inputs": [],
      "name": "owner",
      "outputs": [
        {
          "internalType": "address",
          "name": "",
          "type": "address"
        }
      ],
      "payable": false,
      "stateMutability": "view",
      "type": "function"
    },
    {
      "constant": true,
      "inputs": [],
      "name": "symbol",
      "outputs": [
        {
          "internalType": "string",
          "name": "",
          "type": "string"
        }
      ],
      "payable": false,
      "stateMutability": "view",
      "type": "function"
    },
    {
      "constant": true,
      "inputs": [
        {
          "internalType": "address",
          "name": "_owner",
          "type": "address"
        }
      ],
      "name": "balanceOf",
      "outputs": [
        {
          "internalType": "uint256",
          "name": "_balance",
          "type": "uint256"
        }
      ],
      "payable": false,
      "stateMutability": "view",
      "type": "function"
    },
    {
      "constant": true,
      "inputs": [
        {
          "internalType": "uint256",
          "name": "_tokenID",
          "type": "uint256"
        }
      ],
      "name": "ownerOf",
      "outputs": [
        {
          "internalType": "address",
          "name": "owner",
          "type": "address"
        }
      ],
      "payable": false,
      "stateMutability": "view",
      "type": "function"
    },
    {
      "constant": true,
      "inputs": [],
      "name": "totalSupply",
      "outputs": [
        {
          "internalType": "uint256",
          "name": "total",
          "type": "uint256"
        }
      ],
      "payable": false,
      "stateMutability": "view",
      "type": "function"
    },
    {
      "constant": false,
      "inputs": [
        {
          "internalType": "address",
          "name": "_to",
          "type": "address"
        },
        {
          "internalType": "uint256",
          "name": "_tokenID",
          "type": "uint256"
        }
      ],
      "name": "transfer",
      "outputs": [],
      "payable": false,
      "stateMutability": "nonpayable",
      "type": "function"
    }
  ],
  "bytecode": "0x6080604052336000806101000a81548173ffffffffffffffffffffffffffffffffffffffff021916908373ffffffffffffffffffffffffffffffffffffffff160217905550610946806100536000396000f3fe608060405234801561001057600080fd5b50600436106100885760003560e01c806370a082311161005b57806370a082311461020a5780638da5cb5b1461026257806395d89b41146102ac578063a9059cbb1461032f57610088565b806306fdde031461008d57806318160ddd146101105780634fc75b651461012e5780636352211e1461019c575b600080fd5b61009561037d565b6040518080602001828103825283818151815260200191508051906020019080838360005b838110156100d55780820151818401526020810190506100ba565b50505050905090810190601f1680156101025780820380516001836020036101000a031916815260200191505b509250505060405180910390f35b6101186103b6565b6040518082815260200191505060405180910390f35b61015a6004803603602081101561014457600080fd5b81019080803590602001909291905050506103c3565b604051808273ffffffffffffffffffffffffffffffffffffffff1673ffffffffffffffffffffffffffffffffffffffff16815260200191505060405180910390f35b6101c8600480360360208110156101b257600080fd5b81019080803590602001909291905050506103f6565b604051808273ffffffffffffffffffffffffffffffffffffffff1673ffffffffffffffffffffffffffffffffffffffff16815260200191505060405180910390f35b61024c6004803603602081101561022057600080fd5b81019080803573ffffffffffffffffffffffffffffffffffffffff169060200190929190505050610433565b6040518082815260200191505060405180910390f35b61026a61047c565b604051808273ffffffffffffffffffffffffffffffffffffffff1673ffffffffffffffffffffffffffffffffffffffff16815260200191505060405180910390f35b6102b46104a1565b6040518080602001828103825283818151815260200191508051906020019080838360005b838110156102f45780820151818401526020810190506102d9565b50505050905090810190601f1680156103215780820380516001836020036101000a031916815260200191505b509250505060405180910390f35b61037b6004803603604081101561034557600080fd5b81019080803573ffffffffffffffffffffffffffffffffffffffff169060200190929190803590602001909291905050506104da565b005b6040518060400160405280600b81526020017f43727970746f446f676f7300000000000000000000000000000000000000000081525081565b6000600180549050905090565b60026020528060005260406000206000915054906101000a900473ffffffffffffffffffffffffffffffffffffffff1681565b60006002600083815260200190815260200160002060009054906101000a900473ffffffffffffffffffffffffffffffffffffffff169050919050565b6000600360008373ffffffffffffffffffffffffffffffffffffffff1673ffffffffffffffffffffffffffffffffffffffff168152602001908152602001600020549050919050565b6000809054906101000a900473ffffffffffffffffffffffffffffffffffffffff1681565b6040518060400160405280600381526020017f43444f000000000000000000000000000000000000000000000000000000000081525081565b60006104e5826103f6565b90508073ffffffffffffffffffffffffffffffffffffffff163373ffffffffffffffffffffffffffffffffffffffff161461051f57600080fd5b600073ffffffffffffffffffffffffffffffffffffffff163373ffffffffffffffffffffffffffffffffffffffff16141561055957600080fd5b6000809054906101000a900473ffffffffffffffffffffffffffffffffffffffff1673ffffffffffffffffffffffffffffffffffffffff163373ffffffffffffffffffffffffffffffffffffffff1614156105b357600080fd5b826002600084815260200190815260200160002060006101000a81548173ffffffffffffffffffffffffffffffffffffffff021916908373ffffffffffffffffffffffffffffffffffffffff16021790555061064f600360008573ffffffffffffffffffffffffffffffffffffffff1673ffffffffffffffffffffffffffffffffffffffff16815260200190815260200160002054600161077f565b600360008573ffffffffffffffffffffffffffffffffffffffff1673ffffffffffffffffffffffffffffffffffffffff168152602001908152602001600020819055506106dc600360003373ffffffffffffffffffffffffffffffffffffffff1673ffffffffffffffffffffffffffffffffffffffff168152602001908152602001600020546001610807565b600360003373ffffffffffffffffffffffffffffffffffffffff1673ffffffffffffffffffffffffffffffffffffffff16815260200190815260200160002081905550818373ffffffffffffffffffffffffffffffffffffffff163373ffffffffffffffffffffffffffffffffffffffff167fddf252ad1be2c89b69c2b068fc378daa952ba7f163c4a11628f55a4df523b3ef60405160405180910390a4505050565b6000808284019050838110156107fd576040517f08c379a000000000000000000000000000000000000000000000000000000000815260040180806020018281038252601b8152602001807f536166654d6174683a206164646974696f6e206f766572666c6f77000000000081525060200191505060405180910390fd5b8091505092915050565b600061084983836040518060400160405280601e81526020017f536166654d6174683a207375627472616374696f6e206f766572666c6f770000815250610851565b905092915050565b60008383111582906108fe576040517f08c379a00000000000000000000000000000000000000000000000000000000081526004018080602001828103825283818151815260200191508051906020019080838360005b838110156108c35780820151818401526020810190506108a8565b50505050905090810190601f1680156108f05780820380516001836020036101000a031916815260200191505b509250505060405180910390fd5b506000838503905080915050939250505056fea265627a7a723158206df1d5b0f09a8f5949e067b6daee62499ebbd3605e1944c74351ff4af296606864736f6c634300050c0032",
  "source": "// SPDX-License-Identifier: MIT\r\npragma solidity ^0.5.12;\r\n\r\nimport \"./IERC721.sol\";\r\nimport \"./Safemath.sol\";\r\n\r\ncontract Ownable{\r\n    address public owner;\r\n\r\n\r\n\r\n    modifier onlyOwner(){\r\n        require(msg.sender == owner);\r\n        _; //Continue execution\r\n    }\r\n\r\n    constructor() public{\r\n        owner = msg.sender;\r\n    }\r\n}\r\n\r\ncontract Dogocontract is IERC721 , Ownable {\r\n    string public constant name = \"CryptoDogos\";\r\n    string public constant symbol = \"CDO\";\r\n\r\n    struct Dogo {\r\n        uint256 genes;\r\n        uint64 birthTime;\r\n        uint32 momID;\r\n        uint32 dadID;\r\n        uint16 generation;\r\n    }\r\n        \r\n    Dogo[] dogos; //array of dogos\r\n    mapping (uint256 => address) public dogoIndexToOwner; // map dog id to owner address\r\n    mapping(address => uint256) ownershipTokenCount; // count of dogos belonging to an address\r\n\r\n    event Transfer(address indexed from, address indexed to, uint256 indexed tokenId); //when `tokenId` token is transfered from `from` to `to`.\r\n    event Approval(address indexed owner, address indexed approved, uint256 indexed tokenId); // when `owner` enables `approved` to manage the `tokenId` token.\r\n\r\n    function balanceOf(address _owner) external view returns (uint256 _balance) {\r\n        return ownershipTokenCount[_owner];\r\n    } \r\n\r\n    function ownerOf(uint256 _tokenID) public view returns (address owner){\r\n        return dogoIndexToOwner[_tokenID]; // provide the holder address from the dogo array index\r\n\r\n    }\r\n\r\n    function totalSupply() external view returns (uint256 total){\r\n        return dogos.length; // length (total count) of the dogo array\r\n    }\r\n/* getter functions created by default to state variables\r\n    function name() external view returns (string memory tokenName){ //Returns the name of the token.\r\n        return name;\r\n    }\r\n    \r\n    function symbol() external view returns (string memory tokenSymbol){ //Returns the symbol of the token.\r\n        return symbol;\r\n    }\r\n*/\r\n    function transfer(address _to, uint256 _tokenID) external { // transfers the dogo token from msg.sender to new _to address\r\n        address asOwner = ownerOf(_tokenID);\r\n        require(msg.sender == asOwner); // make sure token is owned by msg.sender\r\n        require(msg.sender != address(0)); //`to` cannot be the zero address\r\n        require(msg.sender != owner); //`to` can not be the contract address\r\n        dogoIndexToOwner[_tokenID] = _to;   // set array index of dogos to new owner\r\n        ownershipTokenCount[_to] = SafeMath.add(ownershipTokenCount[_to],1); // add to the total owner count  ownershipTokenCount[new owner]\r\n        ownershipTokenCount[msg.sender] = SafeMath.sub(ownershipTokenCount[msg.sender],1);  // reduce previous owner's dogo count\r\n\r\n        emit Transfer (msg.sender, _to, _tokenID); // announce transfer \r\n\r\n    }\r\n}",
  "sourcePath": "I:\\Academy_Ivan\\solidity fun\\academy-cryptodogo\\client\\contracts\\Dogocontract.sol",
  "compiler": {
    "name": "solc",
    "version": "0.5.12+commit.7709ece9.Emscripten.clang"
  },
  "schemaVersion": "3.2.0",
  "updatedAt": "2020-08-11T17:07:44.655Z",
  "devdoc": {
    "methods": {}
  },
  "userdoc": {
    "methods": {}
  }
}