{
  "contractName": "Ownable",
  "abi": [
    {
      "inputs": [],
      "payable": false,
      "stateMutability": "nonpayable",
      "type": "constructor"
    },
    {
      "constant": true,
      "inputs": [],
      "name": "owner",
      "outputs": [
        {
          "internalType": "address",
          "name": "",
          "type": "address"
        }
      ],
      "payable": false,
      "stateMutability": "view",
      "type": "function"
    }
  ],
  "bytecode": "0x608060405234801561001057600080fd5b50336000806101000a81548173ffffffffffffffffffffffffffffffffffffffff021916908373ffffffffffffffffffffffffffffffffffffffff16021790555060cf8061005f6000396000f3fe6080604052348015600f57600080fd5b506004361060285760003560e01c80638da5cb5b14602d575b600080fd5b60336075565b604051808273ffffffffffffffffffffffffffffffffffffffff1673ffffffffffffffffffffffffffffffffffffffff16815260200191505060405180910390f35b6000809054906101000a900473ffffffffffffffffffffffffffffffffffffffff168156fea265627a7a72315820a9e5feba7711a32003e2eca2c7eba7cedcd4aee31188eb4261f83bb8d8a9382664736f6c634300050c0032",
  "source": "// SPDX-License-Identifier: MIT\r\npragma solidity ^0.5.12;\r\n\r\nimport \"./IERC721.sol\";\r\nimport \"./Safemath.sol\";\r\n\r\ncontract Ownable{\r\n    address public owner;\r\n\r\n\r\n\r\n    modifier onlyOwner(){\r\n        require(msg.sender == owner);\r\n        _; //Continue execution\r\n    }\r\n\r\n    constructor() public{\r\n        owner = msg.sender;\r\n    }\r\n}\r\n\r\ncontract Dogocontract is IERC721 , Ownable {\r\n    string public constant name = \"CryptoDogos\";\r\n    string public constant symbol = \"CDO\";\r\n    uint256 public GEN0_LIMIT = 10; //... and then there were 10. 10 Brave new Dogos.\r\n\r\n    struct Dogo {\r\n        uint256 genes;\r\n        uint64 birthTime;\r\n        uint32 momID;\r\n        uint32 dadID;\r\n        uint16 generation;\r\n    }\r\n        \r\n    Dogo[] Dogos; //array of dogos\r\n    mapping (uint256 => address) public dogoIndexToOwner; // map dog id to owner address\r\n    mapping(address => uint256) ownershipTokenCount; // count of dogos belonging to an address\r\n\r\n    uint256 public gen0Counter;\r\n\r\n    event Transfer(address indexed from, address indexed to, uint256 indexed tokenId); //when `tokenId` token is transfered from `from` to `to`.\r\n    event Approval(address indexed owner, address indexed approved, uint256 indexed tokenId); // when `owner` enables `approved` to manage the `tokenId` token.\r\n    event Birth(address owner, uint256 dogoID, uint256 momID, uint256 dadID, uint256 genes); // when new dogo is born\r\n\r\n    function balanceOf(address _owner) external view returns (uint256 _balance) {\r\n        return ownershipTokenCount[_owner];\r\n    } \r\n\r\n    function ownerOf(uint256 _tokenID) public view returns (address owner){\r\n        return dogoIndexToOwner[_tokenID]; // provide the holder address from the dogo array index\r\n\r\n    }\r\n\r\n    function _owns(address _claims, uint256 _tokenID) internal view returns (bool) {\r\n        return dogoIndexToOwner[_tokenID] == _claims;\r\n    }\r\n\r\n    function totalSupply() external view returns (uint256 total){\r\n        return Dogos.length; // length (total count) of the dogo array\r\n    }\r\n\r\n    function createGen0Dogo(uint _genes) public onlyOwner {\r\n        // passing in genetic code, create the new dogo\r\n        require(gen0Counter < GEN0_LIMIT);\r\n        gen0Counter++;\r\n        _createDogo(0,0,1,_genes,address(this));\r\n    }\r\n\r\n    function _createDogo( uint256 _momID, uint256 _dadID, uint256 _generation, uint256 _genes, address _owner) private returns (uint256){\r\n        // create dogo from struct\r\n        Dogo memory _dogo = Dogo({\r\n            genes:_genes,\r\n            birthTime: uint64(now),\r\n            momID: uint32(_momID), \r\n            dadID: uint32(_dadID),\r\n            generation: uint16( _generation)\r\n        });\r\n        uint256 newDogoID = Dogos.push(_dogo) -1; // start first dog index 0\r\n\r\n        _transfer(address(0), _owner, newDogoID);\r\n\r\n        emit Birth (_owner, newDogoID, _momID, _dadID, _genes); // announce transfer \r\n\r\n        return newDogoID;\r\n    }\r\n\r\n   \r\n    function transfer(address _to, uint256 _tokenID) external { // transfers the dogo token from msg.sender to new _to address\r\n        require(msg.sender == address(this)); // make sure token is owned by contract\r\n        require(msg.sender != address(0)); //`to` cannot be the zero address\r\n        require(_owns(msg.sender, _tokenID)); //`to` can not be the contract address\r\n        _transfer(msg.sender, _to, _tokenID); // call internal transfer to complete\r\n    }\r\n\r\n    function _transfer(address _from, address _to, uint256 _tokenID) internal {\r\n        // split off transfer for re-use\r\n        dogoIndexToOwner[_tokenID] = _to;   // set array index of dogos to new owner\r\n        ownershipTokenCount[_to] = SafeMath.add(ownershipTokenCount[_to],1); // add to the total new owner count \r\n\r\n        if (_from != address(0)){ // check if there is an actual previous owner then decrease ownership count\r\n            ownershipTokenCount[_from] = SafeMath.sub(ownershipTokenCount[msg.sender],1);  // reduce previous owner's dogo count\r\n        }\r\n\r\n        emit Transfer (_from, _to, _tokenID); // announce transfer \r\n\r\n    }\r\n}\r\n\r\n\r\n/*\r\n****************************************************************************\r\nTEST COMMANDS IN TRUFFLE CONSOLE\r\n****************************************************************************\r\n\r\n\r\nvar instance = await Dogocontract.deployed()\r\n\r\ninstance.name()\r\n\r\ninstance.symbol()\r\n\r\ninstance.createGen0Dogo(1001) - try DNA: 10 13 96 10 10 1 1 13 13 1\r\n\r\n*/\r\n",
  "sourcePath": "I:\\Academy_Ivan\\solidity fun\\academy-cryptodogo\\client\\contracts\\Dogocontract.sol",
  "compiler": {
    "name": "solc",
    "version": "0.5.12+commit.7709ece9.Emscripten.clang"
  },
  "schemaVersion": "3.2.0",
  "updatedAt": "2020-08-16T19:01:40.616Z",
  "devdoc": {
    "methods": {}
  },
  "userdoc": {
    "methods": {}
  }
}