{
  "contractName": "Ownable",
  "abi": [
    {
      "inputs": [],
      "payable": false,
      "stateMutability": "nonpayable",
      "type": "constructor"
    },
    {
      "constant": true,
      "inputs": [],
      "name": "owner",
      "outputs": [
        {
          "internalType": "address",
          "name": "",
          "type": "address"
        }
      ],
      "payable": false,
      "stateMutability": "view",
      "type": "function"
    }
  ],
  "bytecode": "0x608060405234801561001057600080fd5b50336000806101000a81548173ffffffffffffffffffffffffffffffffffffffff021916908373ffffffffffffffffffffffffffffffffffffffff16021790555060cf8061005f6000396000f3fe6080604052348015600f57600080fd5b506004361060285760003560e01c80638da5cb5b14602d575b600080fd5b60336075565b604051808273ffffffffffffffffffffffffffffffffffffffff1673ffffffffffffffffffffffffffffffffffffffff16815260200191505060405180910390f35b6000809054906101000a900473ffffffffffffffffffffffffffffffffffffffff168156fea265627a7a723158207f112e8a6e155d6e4d9db22e9132235fa8e95745d38f221bfafee9db70f7134064736f6c634300050c0032",
  "source": "// SPDX-License-Identifier: MIT\r\npragma solidity ^0.5.12;\r\n\r\nimport \"./IERC721.sol\";\r\nimport \"./Safemath.sol\";\r\n\r\ncontract Ownable{\r\n    address public owner;\r\n\r\n\r\n\r\n    modifier onlyOwner(){\r\n        require(msg.sender == owner);\r\n        _; //Continue execution\r\n    }\r\n\r\n    constructor() public{\r\n        owner = msg.sender;\r\n    }\r\n}\r\n\r\ncontract Dogocontract is IERC721 , Ownable {\r\n    string public constant name = \"CryptoDogos\";\r\n    string public constant symbol = \"CDO\";\r\n    uint256 public GEN0_LIMIT = 10;\r\n\r\n    struct Dogo {\r\n        uint256 genes;\r\n        uint64 birthTime;\r\n        uint32 momID;\r\n        uint32 dadID;\r\n        uint16 generation;\r\n    }\r\n        \r\n    Dogo[] Dogos; //array of dogos\r\n    mapping (uint256 => address) public dogoIndexToOwner; // map dog id to owner address\r\n    mapping(address => uint256) ownershipTokenCount; // count of dogos belonging to an address\r\n\r\n    uint256 public gen0Counter;\r\n\r\n    event Transfer(address indexed from, address indexed to, uint256 indexed tokenId); //when `tokenId` token is transfered from `from` to `to`.\r\n    event Approval(address indexed owner, address indexed approved, uint256 indexed tokenId); // when `owner` enables `approved` to manage the `tokenId` token.\r\n    event Birth(address owner, uint256 dogoID, uint256 momID, uint256 dadID, uint256 genes); // when new dogo is born\r\n\r\n    function balanceOf(address _owner) external view returns (uint256 _balance) {\r\n        return ownershipTokenCount[_owner];\r\n    } \r\n\r\n    function ownerOf(uint256 _tokenID) public view returns (address owner){\r\n        return dogoIndexToOwner[_tokenID]; // provide the holder address from the dogo array index\r\n\r\n    }\r\n\r\n    function totalSupply() external view returns (uint256 total){\r\n        return Dogos.length; // length (total count) of the dogo array\r\n    }\r\n/* getter functions created by default to state variables\r\n    function name() external view returns (string memory tokenName){ //Returns the name of the token.\r\n        return name;\r\n    }\r\n    \r\n    function symbol() external view returns (string memory tokenSymbol){ //Returns the symbol of the token.\r\n        return symbol;\r\n    }\r\n*/\r\n\r\n    function createDogoGen0(uint _genes) public onlyOwner {\r\n        // passing in genetic code, create the new dogo\r\n        require(gen0Counter < GEN0_LIMIT);\r\n        gen0Counter++;\r\n        _createDogo(0,0,1,_genes,address(this));\r\n    }\r\n\r\n    function _createDogo( uint256 _momID, uint256 _dadID, uint256 _generation, uint256 _genes,address _owner) private returns (uint256){\r\n        // create dogo from struct\r\n        Dogo memory _dogo = Dogo({\r\n            genes:_genes,\r\n            birthTime: uint64(now),\r\n            momID: uint32(_momID), \r\n            dadID: uint32(_dadID),\r\n            generation: uint16( _generation)\r\n        });\r\n        uint256 newDogoID = Dogos.push(_dogo) -1; // start first dog index 0\r\n\r\n        birthTransfer(address(0), newDogoID);\r\n        emit Birth (address(0), newDogoID, _momID, _dadID, _genes); // announce transfer \r\n    }\r\n\r\n    function birthTransfer(address _to, uint256 _tokenID) internal { // transfers the dogo token from msg.sender to new _to address\r\n        address asOwner = ownerOf(_tokenID);\r\n        require(msg.sender == asOwner); // make sure token is owned by msg.sender\r\n        require(msg.sender == address(0)); // must be address 0\r\n        require(msg.sender != owner); //`to` can not be the contract address\r\n        dogoIndexToOwner[_tokenID] = _to;   // set array index of dogos to new owner\r\n        ownershipTokenCount[_to] = SafeMath.add(ownershipTokenCount[_to],1); // add to the total owner count  ownershipTokenCount[new owner]\r\n        ownershipTokenCount[msg.sender] = SafeMath.sub(ownershipTokenCount[msg.sender],1);  // reduce previous owner's dogo count\r\n\r\n\r\n\r\n    }\r\n\r\n    function transfer(address _to, uint256 _tokenID) external { // transfers the dogo token from msg.sender to new _to address\r\n        address asOwner = ownerOf(_tokenID);\r\n        require(msg.sender == asOwner); // make sure token is owned by msg.sender\r\n        require(msg.sender != address(0)); //`to` cannot be the zero address\r\n        require(msg.sender != owner); //`to` can not be the contract address\r\n        dogoIndexToOwner[_tokenID] = _to;   // set array index of dogos to new owner\r\n        ownershipTokenCount[_to] = SafeMath.add(ownershipTokenCount[_to],1); // add to the total owner count  ownershipTokenCount[new owner]\r\n        ownershipTokenCount[msg.sender] = SafeMath.sub(ownershipTokenCount[msg.sender],1);  // reduce previous owner's dogo count\r\n\r\n        emit Transfer (msg.sender, _to, _tokenID); // announce transfer \r\n\r\n    }\r\n}",
  "sourcePath": "I:\\Academy_Ivan\\solidity fun\\academy-cryptodogo\\client\\contracts\\Dogocontract.sol",
  "compiler": {
    "name": "solc",
    "version": "0.5.12+commit.7709ece9.Emscripten.clang"
  },
  "schemaVersion": "3.2.0",
  "updatedAt": "2020-08-16T11:22:52.568Z",
  "devdoc": {
    "methods": {}
  },
  "userdoc": {
    "methods": {}
  }
}