{
  "contractName": "Ownable",
  "abi": [
    {
      "inputs": [],
      "payable": false,
      "stateMutability": "nonpayable",
      "type": "constructor"
    },
    {
      "constant": true,
      "inputs": [],
      "name": "owner",
      "outputs": [
        {
          "internalType": "address",
          "name": "",
          "type": "address"
        }
      ],
      "payable": false,
      "stateMutability": "view",
      "type": "function"
    }
  ],
  "bytecode": "0x608060405234801561001057600080fd5b50336000806101000a81548173ffffffffffffffffffffffffffffffffffffffff021916908373ffffffffffffffffffffffffffffffffffffffff16021790555060cf8061005f6000396000f3fe6080604052348015600f57600080fd5b506004361060285760003560e01c80638da5cb5b14602d575b600080fd5b60336075565b604051808273ffffffffffffffffffffffffffffffffffffffff1673ffffffffffffffffffffffffffffffffffffffff16815260200191505060405180910390f35b6000809054906101000a900473ffffffffffffffffffffffffffffffffffffffff168156fea265627a7a72315820ad69de8381b51ffa1a6c861f38fe5b9558ccbca7e7cf1ee342afc47c1707b1ac64736f6c634300050c0032",
  "source": "// SPDX-License-Identifier: MIT\r\npragma solidity ^0.5.12;\r\n\r\nimport \"./IERC721.sol\";\r\nimport \"./Safemath.sol\";\r\nimport \"./IERCReceiver.sol\";\r\n\r\ncontract Ownable{\r\n    address public owner;\r\n\r\n\r\n\r\n    modifier onlyOwner(){\r\n        require(msg.sender == owner);\r\n        _; //Continue execution\r\n    }\r\n\r\n    constructor() public{\r\n        owner = msg.sender;\r\n    }\r\n}\r\n\r\ncontract Dogocontract is IERC721 , Ownable {\r\n    string public constant name = \"CryptoDogos\";\r\n    string public constant symbol = \"CDO\";\r\n    uint256 public GEN0_LIMIT = 25; //... and then there were 25. 25 Brave new Dogos.\r\n\r\n    bytes4 internal constant SPECIAL_ERC721_RECEIVED = bytes4(keccak256(\"onERC721Received(address,address,uint256,bytes)\"));\r\n    bytes4 private constant _INTERFACE_ID_ERC721 = 0x80ac58cd;\r\n    bytes4 private constant _INTERFACE_ID_ERC165 = 0x01ffc9a7;\r\n\r\n    struct Dogo {\r\n        uint256 genes;\r\n        uint64 birthTime;\r\n        uint32 momID;\r\n        uint32 dadID;\r\n        uint16 generation;\r\n    }\r\n        \r\n    Dogo[] Dogos; //array of dogos\r\n    mapping (uint256 => address) public dogoIndexToOwner; // map dog id to owner address\r\n    mapping(address => uint256) ownershipTokenCount; // count of dogos belonging to an address\r\n    mapping (uint256 => address) public dogoIndexToApproved; // mapping to authorize trading\r\n    mapping (address => mapping (address => bool)) private _operatorApprovals; // third party permission from owner address to \"operator\"\r\n        // e.g. _operatorApprovals[MYADDR][OPERATORADDR] = true;\r\n\r\n    uint256 public gen0Counter;\r\n\r\n    event Transfer(address indexed from, address indexed to, uint256 indexed tokenId); //when `tokenId` token is transfered from `from` to `to`.\r\n    event Approval(address indexed owner, address indexed approved, uint256 indexed tokenId); // when `owner` enables `approved` to manage the `tokenId` token.\r\n    event Birth(address owner, uint256 dogoID, uint256 momID, uint256 dadID, uint256 genes); // when new dogo is born\r\n    event ApprovalForAll(address indexed owner, address indexed operator, bool approved); // event when an address is approved for all tokens\r\n    \r\n    function supportsInterface(bytes4 _interfaceId) external pure returns (bool){\r\n        return(_interfaceId == _INTERFACE_ID_ERC721 || _interfaceId == _INTERFACE_ID_ERC165); // adhering to token standard to allow user to know supported interfaces\r\n    }\r\n\r\n    function _safeTransfer(address _from, address _to, uint256 _tokenID, bytes memory _data) internal {\r\n        _transfer(_from, _to, _tokenID);\r\n        require(_checkERC721Support( _from,  _to,  _tokenID,  _data));\r\n   \r\n    }\r\n\r\n    function balanceOf(address _owner) external view returns (uint256 _balance) {\r\n        return ownershipTokenCount[_owner];\r\n    } \r\n\r\n    function ownerOf(uint256 _tokenID) public view returns (address owner){\r\n        require(_tokenID < Dogos.length); // make sure dogo exists  \r\n        return dogoIndexToOwner[_tokenID]; // provide the holder address from the dogo array index\r\n\r\n    }\r\n\r\n    function allOwned(address _address) public view returns ( uint [] memory){\r\n        uint[] memory ownedArray = new uint[](ownershipTokenCount[_address]); //create array to hold array of IDs owned by msg.sender set max to ownedCount\r\n        uint ownedIndex = 0; // index for owned array\r\n        for (uint i = 0; i < Dogos.length; i++){\r\n            if (ownerOf(i) == _address) {\r\n                ownedArray[ownedIndex] = i;\r\n                ownedIndex++;\r\n            }\r\n        }\r\n        return ownedArray;\r\n\r\n    }\r\n\r\n\r\n    function _owns(address _claims, uint256 _tokenID) internal view returns (bool) {\r\n        return dogoIndexToOwner[_tokenID] == _claims;\r\n    }\r\n    \r\n    function _operatorFor(address _claims, uint256 _tokenID) internal view returns (bool) {\r\n        return dogoIndexToApproved[_tokenID] == _claims;\r\n    }\r\n\r\n    function totalSupply() external view returns (uint256 total){\r\n        return Dogos.length; // length (total count) of the dogo array\r\n    }\r\n\r\n    function getDogo(uint _tokenID) external view returns (uint256 _genes, uint256 birthTime, uint256 _generation, uint256 _momID, uint256 _dadID, address _owner) {\r\n        Dogo storage tempDogo = Dogos[_tokenID]; // now tempDogo contains all of Dogos array at index [tokenID] from blockchain storage\r\n        birthTime = uint256(tempDogo.birthTime);\r\n        _momID = uint256(tempDogo.momID);\r\n        _dadID = uint256(tempDogo.dadID);\r\n        _generation = uint256(tempDogo.generation);\r\n        _genes = uint256(tempDogo.genes);\r\n        _owner = address(ownerOf(_tokenID));\r\n    }\r\n    \r\n    function createGen0Dogo(uint _genes) public  {\r\n        // passing in genetic code, create the new dogo\r\n        require(gen0Counter < GEN0_LIMIT);\r\n        gen0Counter++;\r\n        _createDogo(0,0,0,_genes,msg.sender);\r\n    }\r\n\r\n    function _createDogo( uint256 _momID, uint256 _dadID, uint256 _generation, uint256 _genes, address _owner) private returns (uint256){\r\n        // create dogo from struct\r\n        Dogo memory _tempDogo = Dogo({ //instantiate tempDogo of Dogo\r\n            genes:_genes,\r\n            birthTime: uint64(now),\r\n            momID: uint32(_momID), \r\n            dadID: uint32(_dadID),\r\n            generation: uint16( _generation)\r\n        });\r\n        uint256 newDogoID = Dogos.push(_tempDogo) -1; // start first dog index 0\r\n\r\n        _transfer(address(0), _owner, newDogoID);\r\n\r\n        emit Birth (_owner, newDogoID, _momID, _dadID, _genes); // announce transfer \r\n\r\n        return newDogoID;\r\n    }\r\n\r\n   \r\n    function transfer(address _to, uint256 _tokenID) external { // transfers the dogo token from msg.sender to new _to address\r\n        require(msg.sender == address(this)); // make sure token is owned by contract\r\n        require(_to != address(0)); //`to` cannot be the zero address\r\n        require(_owns(msg.sender, _tokenID)); //`to` can not be the contract address\r\n        _transfer(msg.sender, _to, _tokenID); // call internal transfer to complete\r\n    }\r\n\r\n    function _transfer(address _from, address _to, uint256 _tokenID) internal {\r\n        // split off transfer for re-use\r\n        dogoIndexToOwner[_tokenID] = _to;   // set array index of dogos to new owner\r\n        ownershipTokenCount[_to] = SafeMath.add(ownershipTokenCount[_to],1); // add to the total new owner count \r\n\r\n        if (_from != address(0)){ // check if there is an actual previous owner then decrease ownership count\r\n            ownershipTokenCount[_from] = SafeMath.sub(ownershipTokenCount[msg.sender],1);  // reduce previous owner's dogo count\r\n            delete dogoIndexToApproved[_tokenID]; // remove ability to approve others since they no longer own the token\r\n        }\r\n\r\n        emit Transfer (_from, _to, _tokenID); // announce transfer \r\n\r\n    }\r\n\r\n\r\n\r\n    function approve(address _approved, uint256 _tokenID) external {\r\n        require(_owns(msg.sender, _tokenID)); // require address is the owner - nacho keys nacho token.\r\n        require(_tokenID < Dogos.length); // make sure dogo exists  -- better way? require(ownerOf(_tokenID) != 0);\r\n        dogoIndexToApproved[_tokenID] = _approved; // add the approved address to the  token ID mapping\r\n        // no need to add operator mapping since owner has rights\r\n        emit Approval(msg.sender, _approved, _tokenID); // call event to log owner sending tokenID to the approved address\r\n        \r\n    }\r\n    \r\n \r\n    function setApprovalForAll(address _operator, bool _approved) external { // sets approval for all of `msg.sender`'s assets - multiple operators per owner.\r\n      \r\n        require(_operator != msg.sender); \r\n         _operatorApprovals[msg.sender][_operator] = _approved;\r\n\r\n           /// @param _approved True if the operator is approved, false to revoke approval\r\n        emit ApprovalForAll(msg.sender,_operator, _approved);\r\n        \r\n    }\r\n\r\n\r\n    function getApproved(uint256 _tokenID) external view returns (address){  // getter\r\n        return dogoIndexToApproved[_tokenID]; // @return The approved address for this NFT, or the zero address if there is none\r\n        \r\n    }\r\n    \r\n\r\n    function isApprovedForAll(address _owner, address _operator) public view returns (bool) { //getter\r\n        // @notice Query if an address is an authorized operator for another address\r\n        return   _operatorApprovals[_owner][_operator]; // @return True if `_operator` is an approved operator for `_owner`, false otherwise\r\n        \r\n    }\r\n    \r\n\r\n    function transferFrom(address _from, address _to, uint256 _tokenID) external{\r\n        require(_tokenID < Dogos.length);  // make sure dogo exists      \r\n        require(_owns(_from , _tokenID));     /// @param _from The current owner of the NFT in case someone sending on behalf of owner cannot use msg.sender\r\n        require(msg.sender == _from || _operatorFor(msg.sender, _tokenID)); // isApprovedForAll giving declaration error.\r\n  //      require(msg.sender == _from || _operatorFor(msg.sender, _tokenID) || isApprovedForAll(_from, msg.sender) ); // either the owner, or specific operator or approved address for all.\r\n        require(_to != address(0));    /// @param _to The new owner - make sure this is not sending to the zero address\r\n        _transfer(_from, _to, _tokenID); // call internal transfer to complete\r\n        \r\n    }    \r\n        \r\n        \r\n    function _checkERC721Support(address _from, address _to, uint256 _tokenID, bytes memory _data) internal returns (bool) {\r\n        // check for contract\r\n        if (!_isContract(_to)){\r\n            // correctly supports ERC721 \r\n                return true;\r\n        }\r\n        \r\n        \r\n        bytes4 returnData =  IERCReceiver (_to).onERC721Received(msg.sender, _from, _tokenID, _data); // calling interface function to get bytes to check if this is a contract that can accommodate ERC721 tokens\r\n        return returnData == SPECIAL_ERC721_RECEIVED;\r\n        \r\n        \r\n    }\r\n        \r\n        \r\n\r\n    ///  checks if `_to` is a smart contract (code size > 0). If so, it calls\r\n    ///  `onERC721Received` on `_to` and throws if the return value is not\r\n    ///  `bytes4(keccak256(\"onERC721Received(address,address,uint256,bytes)\"))`.\r\n\r\n    function safeTransferFrom(address _from, address _to, uint256 _tokenID, bytes memory _data) public {\r\n        require(_owns(_from , _tokenID));     /// @param _from The current owner of the NFT in case someone sending on behalf of owner cannot use msg.sender\r\n        require(msg.sender == _from || _operatorFor(msg.sender, _tokenID) || isApprovedForAll( _from, msg.sender) ); // either the owner, or specific operator or approved address for all.\r\n        require(_tokenID < Dogos.length);  // make sure dogo exists      \r\n        require(_to != address(0));    /// @param _to The new owner - make sure this is not sending to the zero address\r\n        _checkERC721Support(_from, _to, _tokenID, _data);\r\n        _transfer(_from, _to, _tokenID); // call internal transfer to complete\r\n        \r\n    }\r\n\r\n\r\n    function safeTransferFrom(address _from, address _to, uint256 _tokenID) public {\r\n        safeTransferFrom(_from, _to, _tokenID, \"\");\r\n        \r\n    }\r\n        \r\n        \r\n    function _isContract (address _to) view internal returns (bool)  {\r\n        // codesize 0 for wallet\r\n        uint32 size;\r\n        assembly{\r\n            size := extcodesize(_to)\r\n        }\r\n        return size > 0;\r\n    }  \r\n    \r\n    \r\n    \r\n        \r\n}\r\n\r\n\r\n/*\r\n****************************************************************************\r\nTEST COMMANDS IN TRUFFLE CONSOLE\r\n****************************************************************************\r\n\r\n\r\nvar instance = await Dogocontract.deployed()\r\n\r\ninstance.name()\r\n\r\ninstance.symbol()\r\n\r\ninstance.createGen0Dogo(1001) - try DNA: 10 13 96 10 10 1 1 13 13 1\r\n\r\n*/\r\n",
  "sourcePath": "I:\\Academy_Ivan\\solidity fun\\academy-cryptodogo\\client\\contracts\\Dogocontract.sol",
  "compiler": {
    "name": "solc",
    "version": "0.5.12+commit.7709ece9.Emscripten.clang"
  },
  "schemaVersion": "3.2.0",
  "updatedAt": "2020-09-17T12:49:40.140Z",
  "devdoc": {
    "methods": {}
  },
  "userdoc": {
    "methods": {}
  }
}